:100000000C94DD000C9405010C9405010C94050181
:100010000C9405010C9405010C9405010C94050148
:100020000C9405010C9405010C9453090C94C5091A
:100030000C9405010C9405010C9405010C94050128
:100040000C9405010C9405010C9405010C94050118
:100050000C9405010C9405010C9405010C94B50554
:100060000C9405010C9405010C9405010C940501F8
:100070000C9405010C9405010C9405010C940501E8
:100080000C9405010C9405010C9405010C940501D8
:100090000C94FF050C9405010C9405010C940501CA
:1000A0000C9405010C9405010C9405018408870843
:1000B00076087A087E08A808A808A8088B088F0880
:1000C000930899089D08A808A308000000002400D0
:1000D00027002A002D003000080B00020202010058
:1000E000090400000102020000052400100105249B
:1000F000010101042402060524060001070581030D
:1001000010004009040100020A0000000705020275
:1001100040000007058302400000040309041201A7
:100120000002EF0201404123368000010102030179
:1001300041726475696E6F204C4C43004172647566
:10014000696E6F204C656F6E6172646F0000000015
:1001500000250028002B002E0031000404040404B4
:10016000030405020202020403020202020606065A
:1001700006060604040202020404040802011040F8
:100180008040102040804080080204018040201000
:100190000201108010204040200000000200090FE2
:1001A0000000030401000C0000000000000000003B
:1001B0000000000000000000100D11241FBECFEF52
:1001C000DAE0DEBFCDBF11E0A0E0B1E0E4E3FDE1A5
:1001D00002C005900D92AE33B107D9F722E0AEE32D
:1001E000B1E001C01D92AC3BB207E1F710E0CDEDEC
:1001F000D0E004C02197FE010E944A0DCC3DD107FA
:10020000C9F70E94030C0C94980E0C9400000895FA
:10021000CF93DF93AC01E091FC01F091FD013097A9
:10022000F1F09091FB018091FA019817C0F090E0F5
:10023000292F30E02617370754F4D901AF59BE4FA4
:10024000EA01C20FD31F28812C939F5FF1CF109238
:10025000FB016093FA01CB01DF91CF910994DF910B
:10026000CF910895CF92DF92EF92FF920F931F9359
:10027000CF93DF936C017A018B01C0E0D0E0CE1503
:10028000DF0581F0D8016D918D01D601ED91FC91D2
:100290000190F081E02DC6010995892B11F021967E
:1002A000EECF7E01C701DF91CF911F910F91FF909B
:1002B000EF90DF90CF90089585ED8093BC00809102
:1002C000BC0084FDFCCF1092F70108954091A1017C
:1002D000262F30E0240F311D21323105DCF420912E
:1002E000F7012430C9F4FC0180E090E0861758F44F
:1002F0003091A1012191DC01AF57BE4FA30FB11D79
:100300002C930196F3CF8091A101680F6093A10116
:1003100080E0089581E0089582E008950895E091D5
:10032000FB018091FA01E81730F4F0E0EF59FE4F3D
:10033000808190E008958FEF9FEF08959091FB01E9
:100340008091FA01981750F4E92FF0E0EF59FE4F31
:10035000208130E09F5F9093FB0102C02FEF3FEFC1
:10036000C90108958091FA0190E02091FB01821B60
:1003700091090895CF93DF93CB01EA01642F0E9486
:100380006601CE01DF91CF910895CF93DF931F9245
:10039000CDB7DEB7698361E0CE0101960E946601A8
:1003A00081E090E00F90DF91CF910895089580E073
:1003B00090E0089520915F013091600182179307CA
:1003C000F8F49C01220F331F820F931FE0915D010F
:1003D000F0915E0120915C018E0F9F1FFC01E20FE6
:1003E000F11D608320915B01FC01E20FF11D508340
:1003F00020915A01FC01E20FF11D408380E0089535
:1004000081E00895DC0170E0FB01E658FE4FE491C5
:100410001896EC931897655A7E4FFB018491E82F4C
:10042000F0E0EE0FFF1FE35BFE4F85919491159670
:100430009C938E931497FB016491E62FF0E0EE0FEE
:10044000FF1FE653FF4F8591949117969C938E93CF
:10045000169708950F931F93CF938093590110928D
:1004600058011092600110925F01E8E4F1E0A0E40D
:10047000B1E0119211921D9291E0E835F907C9F7A8
:10048000882361F002E112E0C0E06C2FC8010E94F5
:100490000202CF5F075F1F4FC830B9F7CF911F919E
:1004A0000F9108950E94710E6F927F928F929F928A
:1004B000AF92BF92CF92DF92EF92FF920F931F9372
:1004C000CF93DF93CDB7DEB760970FB6F894DEBF5A
:1004D0000FBECDBF5C0110E0E12EF12CEA14FB044D
:1004E00094F486E092E0103150F40E949E01E1E025
:1004F000F0E0EC0FFD1FEE0DFF1D808302C00E9497
:100500009E011F5FE9CF9981892F8F70833009F495
:10051000E2C030F4813009F433C1823041F0B0C21E
:10052000843009F479C0853009F4DEC1A9C2809114
:100530003F018111A5C280913E018111A1C281E0DC
:1005400080933F0110E009E080915801181708F0EE
:1005500060C0812F90E0AC01405C5E4FDA012C91CD
:10056000222309F452C0C0905D01D0905E01089F23
:10057000D001099FB00D1124AE5EBD4F16962D918E
:100580003C911797F901808118969C911897982BA8
:10059000908314966D917C9115971896FC901897FE
:1005A0008D919C9111979C01220F331F280F391FA9
:1005B00012968D919C911397DC01AA0FBB1F8A0F95
:1005C0009B1FF601E80FF91FDB018C919F2D909581
:1005D0009823C82ECF28FFB6F8942E0F3F1FE2179E
:1005E000F30789F0E190DB0188E0CC9200C0E7FEE0
:1005F0009C93EE0C00C000C000C008F49C9300C0A7
:100600008A9599F7ECCFFFBE7894DA011C921F5FB0
:100610009BCF10923F0134C280913E01811130C2C4
:100620008C8190E0A0E0B0E0AC01BD01EEE0440FB1
:10063000551F661F771FEA95D1F79D81892F90E09E
:10064000A0E0B0E0F5E1880F991FAA1FBB1FFA9543
:10065000D1F7840F951FA61FB71F2A81820F911D06
:10066000A11DB11DCB80D12CE12CF12C17E0CC0CBD
:10067000DD1CEE1CFF1C1A95D1F7C80ED91EEA1E10
:10068000FB1EC114D104E104F10419F000E010E0F4
:1006900012C040915F0150916001CA01880F991FFB
:1006A000480F591F60E070E080915D0190915E01FC
:1006B0000E94910EB1C180915F0190916001081775
:1006C000190708F0A9C1B701A601C8010E94DA0103
:1006D0000F5F1F4FF0CF80913E018111D1C18B81FF
:1006E0000A8110E0B0E88B9F000D111D11248E814E
:1006F00090E0A0E0B0E0AC01BD01EEE0440F551F7A
:10070000661F771FEA95D1F79F81892F90E0A0E0BF
:10071000B0E0F5E1880F991FAA1FBB1FFA95D1F72A
:10072000840F951FA61FB71F2C81820F911DA11D3D
:10073000B11D4D8150E060E070E027E0440F551F8F
:10074000661F771F2A95D1F7480F591F6A1F7B1F15
:10075000C8010E94DA0140915801A8E4B1E080E0AC
:1007600090E0841708F08CC1FC012D913D91019619
:1007700002171307B0F7E05CFE4F81E0808380C171
:10078000913009F07DC1E2E0EA1508F079C180916D
:1007900059010E942A028BEAA89EF12C1124F6949A
:1007A00038E4832E31E0932E42E1A42E42E0B42EB1
:1007B000CE0101966C01E12C7724739452E0652EF2
:1007C00080915901811107C0D60111966C916F710A
:1007D000C5010E940202F601818190E025E0959515
:1007E00087952A95E1F78130910551F08230910586
:1007F00071F0892B91F410925B0170925C0104C03E
:1008000010925C0170925B0160925A0106C01092D6
:100810005A0170925C0160925B01D60113968C9133
:10082000139712960C9110E0B0E88B9F000D111DEC
:100830001124F50111830083EE2029F0F401329791
:100840008081918102C080E090E09801280F391FDB
:10085000D4012D933D934D01F501938382838091C3
:100860005F0190916001080F191F109360010093C0
:100870005F01809158018F5F80935801E394F9E004
:10088000AF0EB11C23E0C20ED11CFE1099CF809197
:100890005D0190915E01009731F00E94E80D109289
:1008A000600110925F010115110509F4E9C078019A
:1008B000EE0CFF1CE00EF11EC7010E94500D90933C
:1008C0005E0180935D01009751F0A70160E070E048
:1008D0000E94910E1093600100935F01D1C01092AD
:1008E000600110925F01CCC08A81982F9F7109F43A
:1008F00093C0A82FA072AA2E092F000F090F21E084
:1009000020933E0110E0E92EF12CB82FB074BB2EDD
:1009100086FF28C0C8010E94500D6C01009729F085
:10092000A80160E070E00E94910EAA2039F0609169
:100930005F01709160016E197F0902C060E070E094
:10094000CB01880F991F680F791F80915D019091ED
:100950005E01680F791FA801C6010E94760EA110E2
:1009600078C019C0AA23B9F080915D0190915E0111
:1009700040915F01509160014E195F099A01220F69
:10098000331F420F531FBC01800F911F0E947F0E27
:1009900080E090E02FC080905F01909060018E1801
:1009A0009F0880915D0190915E01A401440F551F45
:1009B000480D591DBC01600F711F0E947F0EBB20A6
:1009C00099F0C401880F991F880E991E80915D01CE
:1009D00090915E01A801B601880D991D0E94760EC6
:1009E000C6010E94E80D16C080915F0190916001E0
:1009F0008E199F099C01220F331F820F931F209194
:100A00005D0130915E01A80160E070E0820F931FEC
:100A10000E94910E10923E014091580150E061E019
:100A200070E080E491E060960FB6F894DEBF0FBEF0
:100A3000CDBFDF91CF911F910F91FF90EF90DF908D
:100A4000CF90BF90AF909F908F907F906F900C94BD
:100A5000910E80915D0190915E0140915F015091F6
:100A600060014E195F099A01220F331F420F531F75
:100A7000BC01800F911F0E947F0E812C912CA1CF71
:100A800060960FB6F894DEBF0FBECDBFDF91CF9159
:100A90001F910F91FF90EF90DF90CF90BF90AF909C
:100AA0009F908F907F906F90089540910002509199
:100AB00001022091FE013091FF0142175307B4F467
:100AC0009091E8009570E1F39091E80092FD19C0D3
:100AD0008093F100809100029091010201968F7342
:100AE0009927892B19F48EEF8093E80080910002FA
:100AF000909101020196909301028093000281E09F
:100B0000089580E00895615030F02091F100FC01DB
:100B100020830196F8CF289884E6809304020895F4
:100B20003FB7F8948091ED019091EE01A091EF0113
:100B3000B091F00126B5A89B05C02F3F19F0019692
:100B4000A11DB11D3FBFBA2FA92F982F8827820F53
:100B5000911DA11DB11DBC01CD0142E0660F771FA3
:100B6000881F991F4A95D1F708951F920F920FB6CB
:100B70000F9211242F933F938F939F93AF93BF9323
:100B80008091E9019091EA01A091EB01B091EC0113
:100B90003091E80123E0230F2D3720F40196A11DA9
:100BA000B11D05C026E8230F0296A11DB11D20939B
:100BB000E8018093E9019093EA01A093EB01B093DF
:100BC000EC018091ED019091EE01A091EF01B091C7
:100BD000F0010196A11DB11D8093ED019093EE01EE
:100BE000A093EF01B093F001BF91AF919F918F91CE
:100BF0003F912F910F900FBE0F901F9018951F924D
:100C00000F920FB60F9211242F933F934F935F9340
:100C10006F937F938F939F93AF93BF93EF93FF93C4
:100C20008091B900887F803609F49CC068F58832CD
:100C300009F45BC090F4803109F454C038F488237F
:100C400009F4F6C0883009F44DC0F6C0883109F4C3
:100C50004CC0803209F45DC0EFC0803409F468C034
:100C600048F4803309F455C0883309F0E5C0809317
:100C7000C401D8C0803509F44FC0883509F45DC07F
:100C8000883409F0D9C0D6C0883909F4C7C0A8F49F
:100C9000883709F467C038F4883609F463C08037B0
:100CA00009F460C0C9C0883809F4B8C0803909F4B3
:100CB0005FC0803809F0C0C05BC0803B09F486C0CB
:100CC00038F4803A09F466C0883A09F47FC0B4C0A9
:100CD000803C09F4A7C0883C09F4A4C0883B09F40F
:100CE0008AC0AAC08091E70110C09091E60180916E
:100CF000E501981770F5E091E60181E08E0F809391
:100D0000E601F0E0EB53FE4F80818093BB0085EC61
:100D100086C08093C4018EC0E091E60181E08E0F11
:100D20008093E6018091BB00F0E0EB53FE4F80839F
:100D30009091E6018091E5016EC0E091E60181E0CD
:100D40008E0F8093E6018091BB00F0E0EB53FE4FE5
:100D500080838091F60181116DC081E08093F5015F
:100D600084EA61C083E08093F7011092C301CFCF82
:100D70008091C301803208F051C0E091C30181E04D
:100D80008E0F8093C3018091BB00F0E0ED55FE4FC4
:100D90008083BDCF85EC8093BC001092F7018091D9
:100DA000C301803230F4E091C301F0E0ED55FE4F15
:100DB00010826091C30170E0E091F101F091F201C5
:100DC00083EA91E009951092C30136C084E08093D4
:100DD000F7011092A2011092A101E091F301F091AC
:100DE000F40109958091A101811105C081E08093F2
:100DF000A10110928101E091A20181E08E0F809308
:100E0000A201F0E0EF57FE4F80818093BB009091EC
:100E1000A2018091A101981708F479CF85E8809309
:100E2000BC000AC085EC8093BC001092F70104C09E
:100E30001092C4010E945C01FF91EF91BF91AF91AC
:100E40009F918F917F916F915F914F913F912F91E2
:100E50000F900FBE0F901F90189520910502211141
:100E600003C08FEF9FEF08955FB7F89422E02093BF
:100E7000E9002091F20030E01216130614F421E08C
:100E800030E0422FFC0184E6415038F028988093EE
:100E900004029091F1009193F7CF2115310521F0D3
:100EA0008091F200882319F05FBFC90108958BE695
:100EB0008093E800F9CF2FB7F89483E08093E9009E
:100EC0009091E800892F807295FF04C09091F20004
:100ED00080E4891B2FBF08958091600281110DC0AD
:100EE00082E080935C0284E080935D0210925F0256
:100EF00010925E0281E0809360028CE592E008959A
:100F0000CF93DF931F92CDB7DEB76983DC01ED91FC
:100F1000FC910280F381E02D41E050E0BE016F5F63
:100F20007F4F09950F90DF91CF91089583E08093D3
:100F3000E9008091F200882319F08AE38093E800A9
:100F400008950E945B0790E00895CF93DF931F926E
:100F5000CDB7DEB7FC018485958597FD05C02FEFE1
:100F60003FEF358724870BC0CE0101960E942D07E5
:100F7000019719F4898190E002C08FEF9FEF0F90E5
:100F8000DF91CF9108950F931F93CF93DF931F921B
:100F9000CDB7DEB78C01FC018485958597FF0EC027
:100FA000CE0101960E942D07019719F4898190E0E6
:100FB00002C08FEF9FEFF80195878487F801848541
:100FC00095850F90DF91CF911F910F910895FC01AE
:100FD0008485958597FD0BC09FB7F89482E0809338
:100FE000E9008091F2009FBF90E0019608959FB7BD
:100FF000F89482E08093E9008091F2009FBF90E036
:101000000895DF92EF92FF920F931F93CF93DF9398
:10101000D82E8A017B01E40EF51EEB01CE15DF050B
:1010200071F0D7FE03C0FE01849101C088810E9447
:10103000550521968111F2CF8FEF9FEF01C0C801B6
:10104000DF91CF911F910F91FF90EF90DF90089566
:101050000F931F93CF93DF931F92CDB7DEB782E03C
:10106000898342E450E068ED70E080E80E94010866
:101070000E946C07DC0112960D911C9113970115CB
:10108000110589F0D801ED91FC910280F381E02DEA
:10109000BE016F5F7F4FC801099597FD04C0F8013D
:1010A00000851185ECCF89810F90DF91CF911F9141
:1010B0000F91089590E0FC01E756FE4F4491FC012A
:1010C000E658FE4F2491FC01E55AFE4F8491882397
:1010D00009F44CC04423E1F150E0FA013197EF30BC
:1010E000F105B0F5EA5AFF4F0C944A0D909180003B
:1010F0009F7707C0909180009F7D03C090918000F2
:10110000977F9093800024C094B59F7702C094B5D8
:101110009F7D94BD1DC0909190009F7707C09091D6
:1011200090009F7D03C090919000977F90939000D6
:101130000FC09091C0009F7703C09091C0009F7D29
:101140009093C00005C09091C200977F9093C20019
:10115000E82FF0E0EE0FFF1FE35BFE4FA591B49187
:101160008FB7F894EC91E22BEC938FBF0895CF9258
:10117000DF92EF92FF920E9490056B017C010E942A
:101180009005DC01CB018C199D09AE09BF09883E91
:101190009340A105B10598F3FF90EF90DF90CF90B9
:1011A00008958F929F92AF92BF92CF92DF92EF926B
:1011B000FF920F931F93CF93DF936C017B018A0102
:1011C00080910B01882309F458C08091050288237F
:1011D00009F453C08091030280FF05C08091E000B4
:1011E00082608093E000E801B12C8AEFA82E93E0A2
:1011F000892E2AE3922E209711F4BB20B9F10E9488
:101200005B07811106C0AA94AA20B9F10E94B70811
:10121000F2CF282F30E0C217D3070CF48C2F9FB7E2
:10122000F8948092E9002091E80025FF1DC0282F46
:1012300030E0C21BD30BF701815020F04191409365
:10124000F100FACFE20EF31EBB2019F09092E800F5
:101250000AC08091E80085FD07C09092E800BB2499
:10126000B394209709F0B12C9FBFC5CF5D9884E659
:1012700080935B021016110644F081E090E0F601C5
:101280009383828380E090E001C0C801DF91CF9119
:101290001F910F91FF90EF90DF90CF90BF90AF9094
:1012A0009F908F9008951F920F920FB60F92112466
:1012B0008F939F938091E1009091E100937F9093B1
:1012C000E10083FF0FC01092E90091E09093EB00E2
:1012D0001092EC0092E39093ED001092050298E0DA
:1012E0009093F00082FF20C093E09093E9009091EA
:1012F000F200992319F09AE39093E80090915B0231
:10130000992339F090915B02915090935B0299235D
:1013100089F190910402992339F09091040291503F
:1013200090930402992341F184FF10C08091E20060
:101330008E7E81608093E2008091E1008F7E8093B9
:10134000E100809103028E7E806111C080FF16C093
:101350008091E2008E7E80618093E2008091E100C6
:101360008E7E8093E100809103028E7E8160809367
:10137000030204C05D9ACDCF289AD6CF9F918F915A
:101380000F900FBE0F901F9018951F920F920FB6DF
:101390000F921124CF92DF92EF92FF920F931F933F
:1013A0002F933F934F935F936F937F938F939F936D
:1013B000AF93BF93EF93FF93CF93DF93CDB7DEB798
:1013C0006C97DEBFCDBF1092E9008091E80083FFEB
:1013D000FBC168E0CE0145960E94830582EF8093B1
:1013E000E8008D8987FF05C09091E80090FFFCCF51
:1013F00003C09EEF9093E800982F907609F0C6C046
:101400009E894F89588D2F89F88C91110CC0803896
:1014100029F4809102028093F10002C01092F10041
:101420001092F10045C1913051F4811141C1413018
:10143000510509F03DC1809102028D7F0BC09330B0
:1014400061F4811135C14130510509F031C18091FC
:1014500002028260809302022BC1953049F4809190
:10146000E80080FFFCCF822F80688093E30020C1DA
:10147000963009F05EC00B8D1C8D22E01092E900C1
:101480001092010210920002F21232C01092FF017B
:101490001092FE010E94280899E0BE016F5F7F4F05
:1014A000DB01E92F1D92EA95E9F79983FA8291E031
:1014B0009E8390EA98879AEF998720910002309155
:1014C0000102275F3F4F3C832B838D831092E900FD
:1014D00010920102109200021093FF010093FE018E
:1014E00049E050E080E00E9401080E942808E0C026
:1014F0001093FF010093FE010E946C07DC0112961D
:101500000D911C9113970115110509F4BBC0D80169
:10151000ED91FC910480F581E02DBE016B5E7F4F63
:10152000C8010995009709F0C7C0F8010085118529
:10153000EACF973009F445C1983021F481E08093D7
:10154000F100B6C0993009F0B3C0837009F039C119
:10155000E3E1F1E081E031E096E32081211109C06F
:101560008EE78093EA001092EA008F89809305024B
:101570009FC08093E9003093EB0021912093EC0011
:101580009093ED008F5F873041F7EACF8B8D9C8D74
:101590001092E90010920102109200029093FF0154
:1015A0008093FE01898D811153C08E899D89913A66
:1015B00049F4813209F005C147E050E064E071E090
:1015C00080E0BBC0913209F0FCC0833269F48F899E
:1015D000988DA0E0B0E08093000190930101A0936A
:1015E0000201B093030164C0803269F48091E80085
:1015F00082FFFCCF67E084E091E00E9483058BEFDF
:101600008093E80055C0823209F052C08F898093E0
:101610000B01EEEFFFE7859194918B3F9C4D19F004
:10162000E0E0F8E002C0EEEFFAE080910401909172
:101630000501A0910601B0910701803B9440A105EE
:10164000B10509F09EC080910B0180FF79C099C05F
:101650000E946C07FC01028113810115110509F438
:10166000B0C0D801ED91FC910190F081E02DBE0158
:101670006B5E7F4FC801099581111AC0F801008582
:101680001185EBCFF1E0FF1609F44EC0F3E0FF1235
:1016900098C08F89882309F44AC0823089F440E8D1
:1016A00060E18CE391E00E94DB0C882309F489C09F
:1016B0008EEF8093E80088C018161906CCF381C01D
:1016C000813029F440E86BE080E391E0ECCF833097
:1016D00009F077C00E946C07DC011296ED90FC9037
:1016E00013978E010F5F1F4F6801E114F10479F029
:1016F000D701ED91FC910680F781E02DB801C7017B
:101700000995080F111DF701E084F184EECFD8018F
:101710001C92F60101900020E9F73197BF016C1986
:101720007D0940E0C601BFCF6EE171E002C06AE111
:1017300071E0FB01449150E080E80E940108B8CFBD
:10174000EE3F2AE0F20751F0808191818737A7E7C9
:101750009A0721F09093FF0A8093FE0A87E797E7A4
:10176000918380838091600080935A029BE088E19E
:101770000FB6F894A895809360000FBE9093600018
:1017800097CF808191818737974709F091CFA895AE
:101790008091600088618093600080915A028093FC
:1017A0006000EE3FBAE0FB0739F08091FE0A9091AD
:1017B000FF0A918380837CCF1092FF0A1092FE0A69
:1017C00077CF81E28093EB006C960FB6F894DEBF82
:1017D0000FBECDBFDF91CF91FF91EF91BF91AF9140
:1017E0009F918F917F916F915F914F913F912F9139
:1017F0001F910F91FF90EF90DF90CF900F900FBE51
:101800000F901F901895789484B5826084BD84B53C
:10181000816084BD85B5826085BD85B5816085BDEB
:1018200080916E00816080936E00109281008091A3
:10183000810082608093810080918100816080932B
:101840008100809180008160809380008091910070
:1018500082608093910080919100816080939100DB
:10186000809190008160809390008091C10084609D
:101870008093C1008091C10082608093C1008091FB
:10188000C10081608093C1008091C300816080931A
:10189000C3008091C00082608093C0008091C2002C
:1018A00081608093C20080917A00846080937A0086
:1018B00080917A00826080937A0080917A008160C2
:1018C00080937A0080917A00806880937A001092E9
:1018D000050210920202109203028091D7008160EB
:1018E0008093D70080EA8093D80089B5806189BD54
:1018F00089B5826089BD09B400FEFDCF0E94B7089A
:101900008091D8008F7C80618093D8008091E00026
:10191000807F8093E0008091E1008E7E8093E100E3
:101920008DE08093E200559A209A1092FB0110926C
:10193000FA011092F9011092F8011092F70181E07A
:101940008093F6011092F50182E00E945A0883E02C
:101950000E945A088091B9008E7F8093B9008091CF
:10196000B9008D7F8093B90088E48093B80085E446
:101970008093BC0087E091E09093F4018093F301A1
:1019800088E091E09093F2018093F10184E88093E4
:10199000BA0084E592E09093FD018093FC0181E020
:1019A0000E942A02C0E0D0E00E94B7082097E1F32D
:1019B0000E940000F9CFDF92EF92FF920F931F93E6
:1019C000CF93DF93D82EF92EE42E062F10E0C80116
:1019D0000196880F0E94550583E00E945505CD2D84
:1019E000DF2D0C0F1D1FC017D10789F0E7FE03C0C4
:1019F000FE01849101C088810E945505F82E80E087
:101A00000E9455058F2121968111EDCF01C081E003
:101A1000DF91CF911F910F91FF90EF90DF9008958C
:101A200010926B0210926A0288EE93E0A0E0B0E0A0
:101A300080936C0290936D02A0936E02B0936F023C
:101A40002DE131E030936902209368022FEF3FEFE0
:101A500030937502209374021092090210920802CA
:101A600080930A0290930B02A0930C02B0930D0294
:101A70008FE291E09093070280930602E2E1F2E0A8
:101A80001182108213821282399682E0EA35F807B9
:101A9000B9F70895EE0FFF1F0590F491E02D09941A
:101AA0000F931F93CF93DF938230910510F482E060
:101AB00090E0E091BA02F091BB0220E030E0A0E0BB
:101AC000B0E0309719F140815181028113814817AC
:101AD0005907C8F08417950769F4109731F01296EA
:101AE0000C93129713961C9327C00093BA0210937D
:101AF000BB0222C02115310519F04217530718F413
:101B00009A01BD01EF01DF01F801DBCF211531059D
:101B1000F9F0281B390B2430310580F48A819B8130
:101B20006115710521F0FB019383828304C09093BA
:101B3000BB028093BA02FE01329644C0FE01E20F5E
:101B4000F31F8193919322503109398328833AC03E
:101B50002091B8023091B902232B41F420910E015B
:101B600030910F013093B9022093B80220910C01FB
:101B700030910D012115310541F42DB73EB740914B
:101B8000100150911101241B350BE091B802F09126
:101B9000B902E217F307A0F42E1B3F0B28173907F1
:101BA00078F0AC014E5F5F4F2417350748F04E0FB9
:101BB0005F1F5093B9024093B8028193919302C082
:101BC000E0E0F0E0CF01DF91CF911F910F910895F8
:101BD000CF93DF93009709F481C0FC013297138201
:101BE0001282A091BA02B091BB02109781F42081B9
:101BF0003181820F931F2091B8023091B9022817CA
:101C0000390751F5F093B902E093B80267C0ED01CE
:101C100020E030E0CE17DF0740F44A815B819E016F
:101C200041155105F1F0EA01F5CFD383C28340811C
:101C30005181840F951FC817D90759F4888199815C
:101C4000840F951F0296918380838A819B81938361
:101C500082832115310529F4F093BB02E093BA0287
:101C60003DC0E901FB83EA8349915991C40FD51F17
:101C7000EC17FD0761F480819181840F951F029616
:101C8000E90199838883828193819B838A83E0E041
:101C9000F0E012968D919C911397009719F0FD0139
:101CA000DC01F7CF8D919C9111979D012E5F3F4FE5
:101CB000820F931F2091B8023091B902281739077B
:101CC00069F4309729F41092BB021092BA0202C054
:101CD00013821282B093B902A093B802DF91CF9120
:101CE000089581E090E0F8940C94980EFB01DC01DB
:101CF00002C001900D9241505040D8F708956817E6
:101D0000790768F4FB01DC01E40FF51FA40FB51F90
:101D100002C002900E9241505040D8F708950C94A2
:101D2000760EDC0101C06D9341505040E0F70895FC
:041D3000F894FFCF55
:101D3400FFFFFFFF00E10000000000000000BC0204
:101D4400800000C18081000000000000008007D1F5
:101D540008A1079607E707A507C30700000000C509
:0E1D640001BA01D7018E01B2019E018F01006C
:00000001FF
