:1000000032C1000061C100005FC100005DC100009D
:100010005BC1000059C1000057C1000055C100007C
:1000200053C1000051C100004FC100004DC100008C
:100030004BC1000049C1000047C1000045C100009C
:1000400043C100000C94970B3FC100003DC100006C
:100050003BC1000039C1000037C100000C946B1493
:1000600033C100000C944C130C9423132DC10000D9
:100070002BC1000029C1000027C1000025C10000DC
:100080000C946A0B21C100001FC100001DC10000BB
:100090001BC1000019C1000017C100000C94B51469
:1000A00013C1000011C100000C943D0B0DC10000F4
:1000B0000BC1000009C1000007C100000C94100B27
:1000C00003C1000001C10000FFC00000FDC000002E
:1000D000FBC00000F9C00000F7C00000F5C0000040
:1000E000F3C0000075037A037F03890393030C04B4
:1000F0009D03A503AD03B703C103CB03DA03E403F8
:100100000C04EE03F803020403062806F1053B067F
:10011000560688067D06880688068806B1061206F9
:1001200091129412831287128D12CB1298129C1284
:10013000A212A612AA12B012B412B812CB12BE1298
:10014000C212C61200002100240027002A002D0040
:100150003000330001010000040107010A01000022
:100160002200250028002B002E003100340002015F
:100170000000050108010B010000200023002600FB
:1001800029002C002F0032000001000003010601AD
:10019000090105050505070508080808020202020D
:1001A0000A0A080804040404010101010101010113
:1001B0000303030303030303040707070C0C0C0CDE
:1001C0000C0C0C0C020202020606060606060606C7
:1001D0000B0B0B0B0B0B0B0B010210202008081054
:1001E00020401020408002010201080402010102A7
:1001F0000408102040808040201008040201800480
:1002000002018040201008040201080402010102DA
:1002100004081020408001020408102040800000E3
:100220000A0B02090C0D0E08070304010000000070
:1002300000000000000000000000000000000000BE
:10024000000000000000000000001211100000007B
:10025000000000000000000000000000000000009E
:10026000000000001C1E11241FBECFEFD1E2DEBF34
:10027000CDBF00E00CBF13E0A0E0B2E0E4E0F2E4A8
:1002800000E00BBF02C007900D92A431B107D9F76F
:1002900028E0A4E1B3E001C01D92A937B207E1F75D
:1002A00011E0C3E3D1E000E006C021970109802FEF
:1002B000FE010E94A31FC233D10780E00807A9F7FF
:1002C0000E94A6170C9400219BCEE0912203F0918E
:1002D0002303309709F019940895862F642FE09135
:1002E0002003F0912103309711F0A901199408958A
:1002F0000895862FE0911803F0911903309711F0BB
:10030000BA0119940895862FE0911A03F0911B0306
:10031000309711F0BA0119940895862FE0911403D3
:10032000F0911503309711F0BA0119940895862FB2
:10033000E0911603F0911703309711F0BA01199468
:100340000895862FE0911C03F0911D03309711F062
:10035000BA0119940895862FE0911E03F0911F03AE
:10036000309711F0BA0119940895CF93803180F538
:10037000409162035091630321E030E0672B81F4E8
:10038000B90102C0660F771F8A95E2F7CB0180950D
:10039000909584239523909363038093620318C000
:1003A000082E02C0220F331F0A94E2F7242B352BAC
:1003B000309363032093620390912C04911108C041
:1003C000C82F0E941414BC018C2FCF910C9480165E
:1003D000CF9108958F929F92AF92BF92CF92DF926A
:1003E000EF92FF920F931F93CF93DF93893008F022
:1003F0009AC0982F990F990F990F58E0C52EC90EE2
:1004000096E49C1510F446E4C42E8B01C82FCC0F43
:10041000CC0FCC0FDC2ED0E0992493945B01BB244D
:10042000DC1430F58EEF8D0D8434F8F44D2D50E052
:10043000FA01EE55F84F20812230B8F4892D90E072
:100440008A219B2188248394009709F4812C7A01C6
:10045000EE0CFF1C213009F056C0D929F701E851F4
:10046000F84F882D90E091838083990CD394D8CF56
:10047000D0FF05C0602F61708C2F0E94AA13D1FF9E
:1004800006C0602F627081E08C0F0E94AA13D2FF19
:1004900006C0602F647082E08C0F0E94AA13D3FF05
:1004A00006C0602F687083E08C0F0E94AA13D4FFEF
:1004B00006C0602F607184E08C0F0E94AA13D5FFE4
:1004C00006C0602F607285E08C0F0E94AA13D6FFD1
:1004D00006C0602F607486E08C0F0E94AA13D7FFBD
:1004E00022C0602F607887E08C0FDF91CF911F9141
:1004F0000F91FF90EF90DF90CF90BF90AF909F90C3
:100500008F900C94AA13892B09F4A8CFF701E85116
:10051000F84F80819181019709F4A0CF62E08D2D81
:100520000E94D8139BCFDF91CF911F910F91FF9025
:10053000EF90DF90CF90BF90AF909F908F900895F5
:100540008F929F92AF92BF92CF92DF92EF92FF92E3
:100550000F931F93CF93DF93EB01863408F068C1AC
:10056000082F10E0F801EE55F84F9081933009F410
:1005700090C0943009F05CC18250843408F051C1BD
:10058000F801E452FC4FE080F12C6701CC0CDD1C3B
:10059000603282E078070CF042C077FD05C0653B11
:1005A000710524F4DB0104C0A0E001C0A4EBB0E0BD
:1005B000F601EE0DFF1DE157F94F818128E830E08B
:1005C0004901881A910887FD9394880C991C880C1E
:1005D000991C092C000CAA08BB08828128E532E08E
:1005E000281B310987FD3395220F331F220F331F3C
:1005F000A901330F660B770B9A01AB012819390952
:100600004A095B090E94601F24EB30E040E050E0A3
:100610000E943A1F820E931EA41EB51E01C04B01FC
:10062000F601EE0DFF1DE157F94F2081203308F050
:10063000F8C0318188E890E0831B910937FD9395DC
:10064000880F991F880F991F8816990684F0828158
:1006500048E552E0481B510987FD5395440F551F4B
:10066000440F551FC401481559050CF4CA010297DF
:10067000880F991F4FB7F89430E0F901EE0FFF1F74
:100680002E0F3F1FF901E250FA4F928381834FBF33
:10069000C8C0F82E8EEF800F8C3028F084ED800FCC
:1006A000833008F0BEC061E08F2D0E94D8132097E0
:1006B00011F460E004C0CF3FD10529F461E08F2D33
:1006C0000E94AA13AEC0F801E25EFD4FE4918E2FA6
:1006D00090E0FC013197E231F10508F09DC08827D8
:1006E000EE58FF4F8F4F0C94A31F84B5806884BDD4
:1006F000C7BD97C084B5806284BDC8BD92C08091DB
:100700008000806880938000D0938900C093880027
:1007100088C080918000806280938000D0938B009D
:10072000C0938A007EC080918000886080938000A2
:10073000D0938D00C0938C0074C08091B00080680D
:100740008093B000C093B3006CC08091B000806211
:100750008093B000C093B40064C080919000806822
:1007600080939000D0939900C09398005AC08091D4
:100770009000806280939000D0939B00C0939A0079
:1007800050C080919000886080939000D0939D002D
:10079000C0939C0046C08091A00080688093A00018
:1007A0008091A0008F7B8093A000D093A900C0937C
:1007B000A80037C08091A00080628093A000D093F1
:1007C000AB00C093AA002DC08091A00088608093E8
:1007D000A000D093AD00C093AC0023C08091200155
:1007E000806880932001D0932901C093280119C00B
:1007F00080912001806280932001D0932B01C093CF
:100800002A010FC080912001886080932001D0933D
:100810002D01C0932C0105C0C038D1050CF04ECF7E
:1008200048CF000F111FF801E851F84FD183C08362
:10083000DF91CF911F910F91FF90EF90DF90CF90BC
:10084000BF90AF909F908F9008959EEF980F943433
:1008500080F4E82FF0E0DF01AE55B84F9C91913065
:1008600041F4EE0FFF1FE851F84F608371830C9441
:10087000AA130895009721F0805C9F4F0C940E16E8
:100880000895EF92FF920F931F93CF93DF93D82F8A
:100890008B01C42FF22E6F3F8FEF7807F1F081E0CC
:1008A0008093E904D0930B051092EA0410920C0592
:1008B0008AEA95E0CED48F2D0E944A178091D80302
:1008C0009091D9038230910550F0880F991F880FBD
:1008D000991F05970197F1F702C000E010E08091A1
:1008E000E8048111FCCF9C2FC13208F090E281E036
:1008F0008093E8048093E7042FEF2093E60410929E
:10090000E504290F2093E4048093C3048091C30479
:100910002D2F220F822B8093C3048091C20481303B
:1009200061F41092C2048091C3048093BB00809153
:10093000BC0083FDF8CF85EC01C085EE8093BC0040
:100940008091E8048130E1F38091E504891710F487
:100950009091E504E4ECF4E0A4E5B4E080E08917CC
:1009600021F021912D938F5FFACF1092750480931F
:100970007404EC2EF12C90E0E816F9061CF485E8DE
:1009800092E005C08E159F0524F482EA92E00E9451
:100990003217D09398030093990308E913E0C80134
:1009A000885993408E159F057CF40F5F1F4F9091DF
:1009B000740480917504981739F08AEA95E00E94D2
:1009C0000D13F8018183EBCFCE5F6C2F70E048E907
:1009D00053E087E7DF91CF911F910F91FF90EF9048
:1009E0000C94E516A82FB0E0A452BC4F9C91292F7F
:1009F00030E0F901EE0FFF1F2E0F3F1FF901E15705
:100A0000F94FE081F0E09F01220F331FE20FF31F47
:100A1000E250FA4F80818F7B80838091DA039813B4
:100A200006C0992379F091509093DA030BC0882384
:100A300049F0E091DB03EF5FE093DB03F0E0E9597D
:100A4000FC4F90838FEF8C930895DB019091DA0334
:100A50009033A0F53091DB03682F70E0332369F009
:100A6000E32FF0E0E959FC4F8081FB01E452FC4F99
:100A7000808331503093DB0307C0FB01E452FC4F0D
:100A800090839F5F9093DA03FB01E452FC4F8081D7
:100A900090E09C01220F331F820F931F1A161B0632
:100AA00034F4141615061CF49A01AD0104C020E6B6
:100AB00039E040E252E08157994F06C58EEB92E053
:100AC0000C9432178F929F92BF92CF92DF92EF9247
:100AD000FF920F931F93CF93DF93C82ED12CE60183
:100AE000C15ED84FFE01ED57FF4F90819F3709F44B
:100AF00038C1963041F490912B04992321F066304F
:100B0000710509F014C17B01182F0EEF080F043492
:100B1000F8F464307105E1F0F601E452FC4F808195
:100B20008033B0F490E0FC01EE0FFF1F8E0F9F1F8B
:100B3000FC01E157F94F808190E0FC01EE0FFF1FAF
:100B40008E0F9F1FFC01E250FA4F808186FDF5C099
:100B50005AECB52EB10E8FE08B1550F061E070E0CD
:100B600082E0E816F10411F060E070E08B2DFDDB0F
:100B7000043418F5E12FE695E695E695212F2770C8
:100B8000F0E0EC5DFC4FE114F10421F08BE0E8169D
:100B9000F10449F481E090E001C0880F2A95EAF75A
:100BA0009081892B09C081E090E001C0880F2A95CF
:100BB000EAF780959081892380834601880C991CEF
:100BC000F401E851F84F118210828CE0E816F1042C
:100BD00008F09EC0F7018827EC57FF4F8F4F0C9409
:100BE000A31F8FE08B1508F4BCC0043420F460E030
:100BF000812F0E94D813CD57DF4F88818F3709F49A
:100C0000B0C082E083C0043408F0ABC060E0812F44
:100C10000E94D813CD57DF4F88818F3709F4A1C0C8
:100C200018829FC0043408F09CC062E0812F0E94AB
:100C3000D813CD57DF4F88818F3711F08BE0888331
:100C4000F401E851F84F81E090E09183808389C0FE
:100C5000043408F086C060E0812F0E94AA1361E08E
:100C6000812F0E94D813CD57DF4F88818F3709F429
:100C700078C081E04BC00C3028F084ED810F8330C8
:100C800008F06FC061E0812F0E94D81361E0812FCE
:100C90000E94D81360E0812F0E94AA13CD57DF4F26
:100CA00088818F3709F45DC083E030C0043408F0D8
:100CB00058C0CD57DF4F88818F3711F084E088838B
:100CC000F601E452FC4F80818F3FD1F190E0FC01AE
:100CD000EE0FFF1F8E0F9F1FFC01E157F94F808120
:100CE00090E0FC01EE0FFF1F8E0F9F1FFC01E250F2
:100CF000FA4F808186FD35C023C01451123088F52B
:100D0000CD57DF4F88818F3761F186E0888329C016
:100D100082ED92E0DF91CF911F910F91FF90EF90C4
:100D2000DF90CF90BF909F908F900C9432171092CD
:100D30002B049FEF90930002E6CE812F53DE08CF65
:100D40004FEF5FEF6FEF7FEF812FDF91CF911F911B
:100D50000F91FF90EF90DF90CF90BF909F908F907A
:100D600074CEDF91CF911F910F91FF90EF90DF90A4
:100D7000CF90BF909F908F900895DC0170E0FB01B1
:100D8000E852FE4FE4911896EC9318976E567E4FFA
:100D9000FB018491E82FF0E0EE0FFF1FE25AFE4FB7
:100DA0008591949115969C938E931497FB01649171
:100DB000E62FF0E0EE0FFF1FEC5BFE4F8591949164
:100DC00017969C938E93169708953F924F925F9239
:100DD0006F927F928F929F92AF92BF92CF92DF924B
:100DE000EF92FF920F931F93CF93DF935C01690102
:100DF000DA013C90232B19F4CC24CA94DC2C7A0120
:100E00002A01460E571EC0E0D0E000E010E087E067
:100E1000682E712CE414F50409F443C00C151D056B
:100E200008F067C04701F50180819181D7016D917C
:100E30007D010C2E01C0660F0A94EAF763296F77D3
:100E4000DC01ED91FC910190F081E02D19950F5F8F
:100E50001F4FF401608170E0C3018C1B9D0B02C029
:100E6000759567958A95E2F7362E2196C730D1059C
:100E700088F2C016D10699F0D5018D919C91632D11
:100E80006F77DC01ED91FC910190F081E02D1995D7
:100E90000F5F1F4F331C3324331C2797E7CF860186
:100EA000B9CF209731F10C151D0518F5F50180819A
:100EB000918161E070E001C0660FCA95EAF7615068
:100EC0006321DC01ED91FC910190F081E02DDF9137
:100ED000CF911F910F91FF90EF90DF90CF90BF9037
:100EE000AF909F908F907F906F905F904F903F90CA
:100EF0001994DF91CF911F910F91FF90EF90DF90A8
:100F0000CF90BF90AF909F908F907F906F905F90A9
:100F10004F903F900895FF920F931F93CF93DF93CD
:100F20001F921F92CDB7DEB7082F10E0F801EC5DDD
:100F3000FC4F9081F62EF9220E5D1B4F411104C02B
:100F4000F8019081F91609F12F2D30E03A832983B9
:100F5000A0915F07B09160071097A9F0682F6F709C
:100F60006069ED91FC9111970190F081E02DCD0128
:100F7000199522E030E0AE014F5F5F4F62E070E014
:100F80008FE597E022DFF801F0820F900F90DF915C
:100F9000CF911F910F91FF9008950F931F93CF93BF
:100FA000DF93893008F079C0282F30E0F901E35D44
:100FB000FC4F6083672B09F470C0082FF901EC5DCA
:100FC000FC4F1081D22FDD0FDD0FDD0F8EEF8D0F67
:100FD000843408F052C010FF50C08D2F0E9482133D
:100FE000892B09F44AC0C1E08FEF8D0F843448F497
:100FF00011FF07C081E08D0F0E948213892B09F039
:101000003EC012FF06C082E08D0F0E948213892B22
:10101000C1F513FF06C083E08D0F0E948213892B58
:1010200091F514FF06C084E08D0F0E948213892B76
:1010300061F515FF06C085E08D0F0E948213892B94
:1010400031F5D03491F016FF06C086E08D0F0E9476
:101050008213892BF1F4DF3341F017FF06C087E0DC
:101060008D0F0E948213892BB1F441E06C2F802FE9
:10107000DF91CF911F910F914ECFC0E0B5CFC260ED
:10108000C0CFC460C6CFC860CCCFC061D2CFC06271
:10109000D8CFC064E0CFC068E8CFDF91CF911F9177
:1010A0000F910895DF92EF92FF920F931F93CF93CA
:1010B000DF93FC01E058FF4FD080DD2009F45CC0D5
:1010C000EC01C05CDF4FA881B981109709F454C0CE
:1010D000FC01EF57FF4F00811181F801F180E080A2
:1010E000ED91FC9111970190F081E02D60EFCD0121
:1010F000199588819981DC01ED91FC910190F08135
:10110000E02D69E7199588819981DC01ED91FC91C9
:101110000190F081E02D6E2D199588819981DC0177
:10112000ED91FC910190F081E02D6F2D19957801E2
:10113000B2E0EB0EF11C0D0D111DE016F10659F099
:1011400020E030E0A70161E070E0CE013EDEEFEF8D
:10115000EE1AFE0AF2CF88819981DC01ED91FC91B3
:101160000190F081E02D67EFDF91CF911F910F91FA
:10117000FF90EF90DF901994DF91CF911F910F9125
:10118000FF90EF90DF900895009709F08BCF0895BE
:101190008091740490E020917504821B9109089558
:1011A000089580E090E0089520914E0430914F041E
:1011B00082179307F8F49C01220F331F820F931FAD
:1011C000E0914C04F0914D0420914B048E0F9F1F31
:1011D000FC01E20FF11D608320914A04FC01E20F43
:1011E000F11D508320914904FC01E20FF11D408361
:1011F00080E0089581E00895CF92DF92EF92FF9210
:101200000F931F93CF93DF937C01CB018A01209131
:10121000E904222389F0EB016B01C40ED51ECC1525
:10122000DD0569F06991D701ED91FC910190F081A4
:10123000E02DC7011995F3CF642F0E94E615C80170
:10124000DF91CF911F910F91FF90EF90DF90CF90A2
:101250000895CF93DF931F92CDB7DEB769832091B6
:10126000E9042223D1F020910C05203240F021E046
:1012700030E0FC013383228380E090E015C0809150
:10128000EA04E82FF0E0E551FB4F998190838F5FEE
:101290008093EA0480930C0505C061E0CE010196BD
:1012A0000E94E61581E090E00F90DF91CF910895C4
:1012B000CF92DF92EF92FF920F931F93CF93DF9322
:1012C0006C018B017A01EC01C05BDB4F888187FFE9
:1012D00004C0FB011182108224C02CE02C9DC001AF
:1012E0002D9D900D11242881AC01420F511D27FD29
:1012F0005A9520918E0630E04217530794F42881C6
:10130000AC01420F511D27FD5A959A01FA01EE0FCB
:10131000FF1F2E0F3F1FF901E250FA4F208126FDDB
:1013200019C088818F5F88832CE02C9DC0012D9D82
:10133000900D11242881AC01420F511D27FD5A95B3
:1013400020918E0630E042175307BCF428812C30E0
:1013500044F113C02881820F911D27FD9A95FC014D
:10136000EE0FFF1F8E0F9F1FFC01E250FA4F80818E
:1013700060E08F730E94AA13D4CFF801808191811D
:10138000049680349C4918F480E49CE904C0F80178
:10139000808191810496F701918380838FEF888308
:1013A00045C0F801408151812881BC01620F711D47
:1013B00027FD7A959B01FB01EE0FFF1F2E0F3F1FAC
:1013C000F901E250FA4F21813281240F351FF701D4
:1013D000318320832881AC01420F511D27FD5A958E
:1013E0009A01FA01EE0FFF1F2E0F3F1FF901E25085
:1013F000FA4F208126FF1AC02881820F911D27FDF8
:101400009A95FC01EE0FFF1F8E0F9F1FFC01E2500B
:10141000FA4F808161E08F73DF91CF911F910F911F
:10142000FF90EF90DF90CF900C94AA13DF91CF91B3
:101430001F910F91FF90EF90DF90CF9008950F9341
:101440001F93CF93DF9381E080932C0480912B0432
:10145000882329F010922B048FEF80930002EDE295
:10146000F3E0C4E2D3E0A2E2B4E0119219921D923B
:1014700083E0E633F807C9F70CED13E0C0E0DFEFD7
:101480008AEC8C0F803118F462E070E006C08EEFB9
:101490008C0F843420F461E070E08C2F13DBF801B2
:1014A000D1938F01CF5FC63459F710926303109226
:1014B00062031092DB031092DA0310922C04DF9186
:1014C000CF911F910F910895DF92EF92FF920F93AA
:1014D0001F93CF93DF93EC01D62E7A018901888187
:1014E000803308F068C061E08D2D0E94D813888198
:1014F000E82FF0E09F01220F331FE20FF31FE250AD
:10150000FA4F9D2D9F732081207CD22ED92AD08224
:1015100020E232E02E193F0937FF02C02D5F3F4F16
:101520003595279535952795298320E639E0201BA9
:10153000310B37FF02C02D5F3F4F3595279535950D
:1015400027952A836CE00E94971F9CE0899FB00139
:10155000112440E050E09B01240F351FF901EE0FEC
:10156000FF1F2E0F3F1FF901E250FA4F908196FDA9
:1015700016C04F5F5F4F4C30510569F7813021F540
:101580001092800082E0809381001092850010927A
:101590008400B19A80916F00826080936F00E8812F
:1015A000F0E0CF01880F991FE80FF91FE250FA4FC2
:1015B0008081806480838881DF91CF911F910F911A
:1015C000FF90EF90DF900895823061F410929000C8
:1015D00080939100109295001092940088BB8093A4
:1015E0007100DDCF833069F41092A00082E0809317
:1015F000A1001092A5001092A40089BB80937200F4
:10160000CECF8111CCCF1092200182E080932101B6
:1016100010922501109224018ABB80937300BFCFE2
:101620001F920F920FB60F9211240BB60F922F93A9
:101630003F934F935F936F937F938F939F93AF935A
:10164000BF93EF93FF9348E251E064E271E080E0E2
:1016500090E02EDEFF91EF91BF91AF919F918F911E
:101660007F916F915F914F913F912F910F900BBEA2
:101670000F900FBE0F901F9018951F920F920FB6EC
:101680000F9211240BB60F922F933F934F935F93BA
:101690006F937F938F939F93AF93BF93EF93FF933A
:1016A00048EA50E064EA70E083E090E001DEFF91F8
:1016B000EF91BF91AF919F918F917F916F915F91CA
:1016C0004F913F912F910F900BBE0F900FBE0F9037
:1016D0001F9018951F920F920FB60F9211240BB600
:1016E0000F922F933F934F935F936F937F938F93BB
:1016F0009F93AF93BF93EF93FF9348E950E064E962
:1017000070E082E090E0D4DDFF91EF91BF91AF9166
:101710009F918F917F916F915F914F913F912F9109
:101720000F900BBE0F900FBE0F901F9018951F9239
:101730000F920FB60F9211240BB60F922F933F9377
:101740004F935F936F937F938F939F93AF93BF93C9
:10175000EF93FF9348E850E064E870E081E090E0A8
:10176000A7DDFF91EF91BF91AF919F918F917F91F5
:101770006F915F914F913F912F910F900BBE0F9002
:101780000FBE0F901F9018951092480410924F04AE
:1017900010924E04E8E3F4E0A0E3B4E01192119259
:1017A0001D9284E0E834F807C9F708957F928F927C
:1017B0009F92AF92BF92CF92DF92EF92FF920F93E0
:1017C0001F93CF93DF93EA018F3609F4BEC1162F22
:1017D000803778F4893609F483C220F4813509F41E
:1017E00091C23FC58B3609F4DAC18D3609F428C29F
:1017F00038C5863761F020F4803709F445C131C51A
:10180000883709F4EFC08A3709F48BC12AC52981CA
:10181000922F987125FF03C083EE92E060C088810B
:1018200031E026FB222720F92327983061F160F46C
:10183000911117C53093E90480930B051092EA04C7
:1018400010920C0502E007C0903109F442C09831B3
:1018500009F47BC006C5011770F4FE01E00FF11D0D
:1018600061816795662767958081680F8AEA95E0B0
:10187000F0DC0E5FF0CF81E00E944A1783E191E037
:101880000197F1F7EEC44B816A81163069F470E07C
:1018900030E8439F600D711D11244D814795442709
:1018A00047959C81490F06C0479544274795460FA9
:1018B0006FEF7FEFDF91CF911F910F91FF90EF902E
:1018C000DF90CF90BF90AF909F908F907F900C94BF
:1018D0004104E0910002E7308CF083E093E0DF9177
:1018E000CF911F910F91FF90EF90DF90CF90BF901D
:1018F000AF909F908F907F900C9432179B813A818C
:10190000663071F4632F70E040E8949F600D711DA4
:1019100011249D819795992797954C81940F06C026
:10192000979599279795930F6FEF7FEFEF5FE09370
:10193000000235E0E302F0011124E65CFC4F8083F5
:1019400072836183938324838CC4209100021216D6
:101950003CF490E0622F022E000C770B35E00FC0B4
:101960008FEF809300027DC4349FF001359FF00D0E
:101970001124E65CFC4F4081841739F09F5F492FAA
:1019800050E06417750784F790E085E022C0983036
:10199000F8F4FA0131968E9FD0018F9FB00D11247B
:1019A000A65CBC4F3C91849FF001859FF00D1124F3
:1019B000E65CFC4F308311964D915C9112975283F7
:1019C000418313963C911397338314963C9134834F
:1019D0009F5F492F50E064177507CCF62150209384
:1019E00000023FC42981888190E040E8249F800D57
:1019F000911D1124009721F09093D9038093D8036F
:101A000080912B0481112DC4C0E08CEE8C0F8230AC
:101A100020F466E070E08C2F55D8CF5FC634A9F76C
:101A200081E080932B04109275041092740410923C
:101A3000EA0410920C051092E8048093E7041092D7
:101A4000C20461E084E186D661E085E183D68091BD
:101A5000B9008E7F8093B9008091B9008D7F80930B
:101A6000B90088E48093B80085E48093BC008BEFD4
:101A700092E190937704809376048CEF92E19093B7
:101A8000790480937804EDC3653008F4EAC31881C3
:101A90008EEF810F843408F0E4C30981EA80FB8073
:101AA000CC81E12FF0E0E452FC4F80818033B0F430
:101AB00090E0FC01EE0FFF1F8E0F9F1FFC01E1570E
:101AC000F94F808190E0FC01EE0FFF1F8E0F9F1FEA
:101AD000FC01E250FA4F808186FDA8C34F2D50E0F3
:101AE00080E8C89F400D511D1124602F70E090E8E0
:101AF000E99E600D711D1124812F0E94250564E06F
:101B000070E0812FDF91CF911F910F91FF90EF90A7
:101B1000DF90CF90BF90AF909F908F907F900C946C
:101B20006205623008F49DC32981888190E0E0E875
:101B30002E9F800D911D1124009711F481E090E0FB
:101B400090930202809301028CC3623008F489C32F
:101B5000898190E0623091F02A81F0E82F9F900116
:101B60001124822B932B633049F02B8130E030E439
:101B7000239F302D22271124822B932BBC01888197
:101B8000DF91CF911F910F91FF90EF90DF90CF9059
:101B9000BF90AF909F908F907F900C94A00280EFA9
:101BA0000E943D178CE60E943D17CEEF8CEC8C0F07
:101BB000803138F482E00E943D178AE00E943D1790
:101BC00002C0CC3020F086ED8C0F833030F483E0FF
:101BD0000E943D1788E00E943D17C43430F484E031
:101BE0000E943D178EE00E943D178EEE8C0F8230D2
:101BF00030F486E00E943D1781E00E943D178FE798
:101C00000E943D17CF5FC43451F1C43478F680E0B0
:101C10000E943D1781E00E943D178BE00E943D1716
:101C200081E00E943D1781E00E943D1781E00E9403
:101C30003D1781E50E943D1781E00E943D17B6CF18
:101C4000662309F40EC3C88180EF0E943D178EE61B
:101C50000E943D178C2F0E943D17C63480F087EFFD
:101C6000DF91CF911F910F91FF90EF90DF90CF9078
:101C7000BF90AF909F908F907F900C943D17D0E0D5
:101C8000FE01EE55F84F80810E943D17CC0FDD1FFD
:101C90008E010851184FF80180818F770E943D17FF
:101CA000F801808191819C012078232B39F0880FE5
:101CB000892F881F990B8F770E943D17C851D84FE5
:101CC000888199819C012227307C232B41F2990F36
:101CD000880B990F982F881F8F770E943D17BFCFD1
:101CE00080EF0E943D178AE60E943D17CAECC03182
:101CF00010F08FE701C08C2F0E943D17CF5FC031DD
:101D0000B1F7ADCF662309F4ACC29881892F8F70EB
:101D1000833009F4D0C030F4813009F420C182301E
:101D200041F09FC2843009F469C0853009F4D1C103
:101D300098C280912F04811194C280912E04811148
:101D400090C281E080932F0440E019E08091480424
:101D5000481708F050C0842F90E0BC01605D7B4FB5
:101D6000FB012081222309F442C0E0914C04F09150
:101D70004D04189FE001199FD00D1124CA54DA4F69
:101D8000AE81BF818C919885982B9C93AC81BD814D
:101D90005885888199819C01220F331F280F391F94
:101DA0008A819B81EC01CC0FDD1F8C0F9D1FE80FFA
:101DB000F91F8C91952F90959823852B5FB7F894F8
:101DC0002E0F3F1F2E173F0781F0C191D8E08C9353
:101DD00000C0C7FF9C93CC0F00C000C000C008F437
:101DE0009C9300C0DA9599F7EDCF5FBF7894FB0123
:101DF00010824F5FABCF10922F0433C280912E041C
:101E000081112FC28B8190E0A0E0B0E0AC01BD0158
:101E10001EE0440F551F661F771F1A95D1F79C814E
:101E2000892F90E0A0E0B0E005E1880F991FAA1F7C
:101E3000BB1F0A95D1F7840F951FA61FB71F2981D5
:101E4000820F911DA11DB11DCA80D12CE12CF12C56
:101E500027E0CC0CDD1CEE1CFF1C2A95D1F7C80E28
:101E6000D91EEA1EFB1EC114D104E104F10419F0CD
:101E7000C0E0D0E012C040914E0450914F04CA011E
:101E8000880F991F480F591F60E070E080914C0443
:101E900090914D040E94EA20B3C180914E0490912C
:101EA0004F04C817D90708F0ABC1B701A601CE018E
:101EB0007BD92196F2CF80912E048111D2C18A81E3
:101EC000098110E0F0E88F9F000D111D11248D8114
:101ED00090E0A0E0B0E0AC01BD01EEE0440F551F82
:101EE000661F771FEA95D1F79E81892F90E0A0E0C9
:101EF000B0E0F5E1880F991FAA1FBB1FFA95D1F733
:101F0000840F951FA61FB71F2B81820F911DA11D46
:101F1000B11D4C8150E060E070E0C7E0440F551FF8
:101F2000661F771FCA95D1F7480F591F6A1F7B1F7D
:101F3000C8013AD940914804A8E3B4E080E090E0B9
:101F4000841708F08EC1FC012D913D910196021776
:101F50001307B0F7E05DFB4F81E0808382C19130D1
:101F600009F07FC1633008F47CC190902D040CDC33
:101F7000911013C06BEA169FB12C1124B69448E35C
:101F8000C42E44E0D42E56EBE52E55E0F52EA12CC0
:101F90008824839462E0762E58C036EBE32E35E039
:101FA000F32E00E0602FC7010E94BD060F5F39E0ED
:101FB000E30EF11C0830B1F7DDCF898190E025E018
:101FC000959587952A95E1F78130910509F445C0EB
:101FD0008230910509F446C0892B31F410924A04ED
:101FE00080924B04709249048B810A8110E040E892
:101FF000849F000D111D1124F70111830083AA2075
:10200000C1F1F6013297808191819801280F391F23
:10201000F601219331936F01F701938382838091BD
:102020004E0490914F04080F191F10934F04009312
:102030004E04809148048F5F80934804A394F9E094
:10204000EF0EF11C2396BA14B9F09110B6CF698146
:102050006F71C7010E94BD06B0CF10924B048092F1
:102060004A04C0CF1092490480924B0470924A04F3
:10207000BBCF80E090E0C9CF80914C0490914D049B
:10208000009731F00E94432010924F0410924E04AA
:102090000115110509F4E5C0E801CC0FDD1FC00FE3
:1020A000D11FCE010E94AB1F90934D0480934C042E
:1020B000009751F0AE0160E070E00E94EA201093BA
:1020C0004F0400934E04CDC010924F0410924E0462
:1020D000C8C08981082F0F7109F492C0382F30725F
:1020E000D32EC02FCC0FC00F91E090932E04D0E0E0
:1020F00010E0482F4074B42E86FF28C0CE010E9405
:10210000AB1F7C01009729F0AE0160E070E00E94F7
:10211000EA20DD2039F060914E0470914F04601B7D
:10212000710B02C060E070E0CB01880F991F680F4F
:10213000791F80914C0490914D04680F791FAE0176
:10214000C7010E94D020D11075C019C03323B9F047
:1021500080914C0490914D0440914E0450914F0455
:10216000401B510B9A01220F331F420F531FBC011A
:102170008C0F9D1F0E94D92080E090E02FC0C0905E
:102180004E04D0904F04C01AD10A80914C04909113
:102190004D04A601440F551F4C0D5D1DBC016C0F75
:1021A0007D1F0E94D920BB2099F0C601880F991F7E
:1021B000C80ED91E80914C0490914D04AE01B70118
:1021C0008C0D9D1D0E94D020C7010E94432016C087
:1021D00080914E0490914F04801B910B9C01220F23
:1021E000331F820F931F20914C0430914D04AE0198
:1021F00060E070E0820F931F0E94EA2010922E048C
:102200004091480450E061E070E080E394E0DF91A9
:10221000CF911F910F91FF90EF90DF90CF90BF90E3
:10222000AF909F908F907F900C94EA20812F0E9416
:10223000F20454CC80914C0490914D0440914E0492
:1022400050914F04401B510B9A01220F331F420F34
:10225000531FBC018C0F9D1F0E94D920C12CD12C73
:10226000A4CFDF91CF911F910F91FF90EF90DF905E
:10227000CF90BF90AF909F908F907F900895CF9216
:10228000DF92EF92FF920F931F93CF93DF936C0136
:102290007A018B01C0E0D0E0CE15DF0581F0D801D6
:1022A0006D918D01D601ED91FC910190F081E02DB1
:1022B000C6011995892B11F02196EECF7E01C70139
:1022C000DF91CF911F910F91FF90EF90DF90CF9012
:1022D0000895FC01538D448D252F30E0842F90E02C
:1022E000821B930B541710F0CF9608950197089511
:1022F000FC01918D828D981761F0828DDF01A80F0E
:10230000B11D5D968C91928D9F5F9F73928F90E02F
:1023100008958FEF9FEF0895FC01918D828D98179E
:1023200031F0828DE80FF11D858D90E008958FEFDB
:102330009FEF0895FC01918D228D892F90E0805CA4
:102340009F4F821B91098F73992708958DE095E027
:10235000F1DF21E0892B09F420E0822F0895FC01B0
:10236000848DDF01A80FB11DA35ABF4F2C91848D1E
:1023700090E001968F739927848FA689B7892C9353
:10238000A089B1898C91837080648C93938D848DA6
:10239000981306C00288F389E02D80818F7D8083A9
:1023A0000895EF92FF920F931F93CF93DF93EC0169
:1023B00081E0888F9B8D8C8D981305C0E889F98901
:1023C000808185FD25C0F62E0B8D10E00F5F1F4F1D
:1023D0000F731127E02E8C8DE8120BC00FB607FC8F
:1023E000FACFE889F989808185FFF5CFCE01B7DF83
:1023F000F2CF8B8DFE01E80FF11DE35AFF4FF08203
:102400009FB7F8940B8FEA89FB89808180620AC0AC
:102410009FB7F894EE89FF896083E889F989808104
:102420008370806480839FBF81E090E0DF91CF91D3
:102430001F910F91FF90EF900895CF93DF93EC01E0
:10244000888D8823C1F0EA89FB89808185FD05C0DC
:10245000A889B9898C9186FD0EC00FB607FCF5CF0F
:10246000808185FFF2CFA889B9898C9185FFEDCF56
:10247000CE0175DFE8CFDF91CF91089580E090E045
:10248000892B19F063DF811125C080E090E0892B52
:1024900041F080E090E0892B21F00E940000811142
:1024A0001CC080E090E0892B41F080E090E0892B17
:1024B00021F00E940000811113C080E090E0892B80
:1024C000A1F080E090E0892B81F00E940000811152
:1024D0000AC008950E940000D8CF0E940000E1CFFA
:1024E0000E940000EACF0C940000089590E0FC01E7
:1024F0003197E231F10508F04EC08827E057FF4FD1
:102500008F4F0C94A31F809180008F7703C0809120
:1025100080008F7D80938000089580918000877F68
:10252000F9CF84B58F7702C084B58F7D84BD0895BF
:102530008091B0008F7703C08091B0008F7D809331
:10254000B0000895809190008F7707C0809190002F
:102550008F7D03C080919000877F809390000895C5
:102560008091A0008F7707C08091A0008F7D03C06D
:102570008091A000877F8093A00008958091200122
:102580008F7707C0809120018F7D03C0809120014B
:10259000877F8093200108953FB7F8948091BE040F
:1025A0009091BF04A091C004B091C10426B5A89B2E
:1025B00005C02F3F19F00196A11DB11D3FBFBA2FD5
:1025C000A92F982F8827820F911DA11DB11DBC0135
:1025D000CD0142E0660F771F881F991F4A95D1F7FA
:1025E000089585ED8093BC008091BC0084FDFCCFF4
:1025F0001092E8040895089508950895E0917504EF
:1026000080917404E81730F4F0E0EC5AFB4F8081BD
:1026100090E008958FEF9FEF089590917504809159
:102620007404981750F4E92FF0E0EC5AFB4F208126
:1026300030E09F5F9093750402C02FEF3FEFC90118
:1026400008950E94CC201F920F920FB60F92112472
:102650000BB60F922F933F934F935F936F937F939C
:102660008F939F93AF93BF93EF93FF938DE095E08C
:1026700076DEFF91EF91BF91AF919F918F917F9106
:102680006F915F914F913F912F910F900BBE0F90E3
:102690000FBE0F901F9018951F920F920FB60F92BA
:1026A00011240BB60F922F938F939F93EF93FF9369
:1026B000E0911D05F0911E058081E0912305F091C8
:1026C000240582FD12C09081809126058F5F8F7353
:1026D00020912705821751F0E0912605F0E0E35F95
:1026E000FA4F958F8093260501C08081FF91EF916D
:1026F0009F918F912F910F900BBE0F900FBE0F9057
:102700001F901895CF93DF93282F30E0F901E25EF8
:10271000FD4F8491F901E852FE4FD491F901EE5634
:10272000FE4FC491CC2389F08111E0DEEC2FF0E064
:10273000EE0FFF1FE858FE4FA591B491EC91ED23E9
:1027400081E090E021F480E002C080E090E0DF9141
:10275000CF9108951F93CF93DF93282F30E0F90195
:10276000E25EFD4F8491F901E852FE4FD491F901E8
:10277000EE56FE4FC491CC23B9F0162F8111B6DE70
:10278000EC2FF0E0EE0FFF1FE25AFE4FA591B4913F
:102790009FB7F894111104C08C91D095D82302C032
:1027A000EC91DE2BDC939FBFDF91CF911F910895B9
:1027B000CF93DF9390E0FC01E852FE4F2491FC019F
:1027C000EE56FE4F8491882361F190E0880F991FA7
:1027D000FC01EC5BFE4FC591D491FC01E25AFE4F27
:1027E000A591B491611109C09FB7F8948881209593
:1027F00082238883EC912E230BC0623061F49FB753
:10280000F8948881322F309583238883EC912E2B86
:102810002C939FBF06C08FB7F894E8812E2B288396
:102820008FBFDF91CF910895863308F08653909142
:102830007B00282F2870977F922B90937B008770C6
:10284000806480937C0080917A00806480937A0019
:1028500080917A0086FDFCCF8091780020917900EC
:1028600090E0922B08958F929F92AF92BF92CF9259
:10287000DF92EF92FF926B017C018EDE4B015C01D7
:10288000C114D104E104F104E9F086DEDC01CB01DE
:1028900088199909AA09BB09883E9340A105B10589
:1028A00078F321E0C21AD108E108F10888EE880E19
:1028B00083E0981EA11CB11CC114D104E104F104F1
:1028C00021F7DECFFF90EF90DF90CF90BF90AF90D9
:1028D0009F908F9008951F920F920FB60F92112420
:1028E0002F933F938F939F93AF93BF938091360322
:1028F00090913703A0913803B09139033091BD0412
:1029000023E0230F2D3720F40196A11DB11D05C032
:1029100026E8230F0296A11DB11D2093BD048093CC
:10292000360390933703A0933803B0933903809113
:10293000BE049091BF04A091C004B091C10401965F
:10294000A11DB11D8093BE049093BF04A093C00449
:10295000B093C104BF91AF919F918F913F912F91FF
:102960000F900FBE0F901F9018951F920F920FB6E9
:102970000F9211240BB60F922F933F934F935F93B7
:102980006F937F938F939F93AF93BF93EF93FF9337
:102990008091B900887F803609F49CC068F5883240
:1029A00009F45BC090F4803109F454C038F48823F2
:1029B00009F4F6C0883009F44DC0F5C0883109F437
:1029C0004CC0803209F45DC0EEC0803409F468C0A8
:1029D00048F4803309F455C0883309F0E4C080938B
:1029E000E604D8C0803509F44FC0883509F45DC0CD
:1029F000883409F0D8C0D6C0883909F4C7C0A8F413
:102A0000883709F467C038F4883609F463C0803722
:102A100009F460C0C8C0883809F4B8C0803909F426
:102A20005FC0803809F0BFC05BC0803B09F486C03E
:102A300038F4803A09F466C0883A09F47FC0B3C01C
:102A4000803C09F4A7C0883C09F4A4C0883B09F481
:102A50008AC0A9C08091C30410C09091E504809100
:102A6000E404981770F5E091E50481E08E0F8093FF
:102A7000E504F0E0EC53FB4F80818093BB0085ECD4
:102A800086C08093E6048EC0E091E50481E08E0F5D
:102A90008093E5048091BB00F0E0EC53FB4F808312
:102AA0009091E5048091E4046EC0E091E50481E03A
:102AB0008E0F8093E5048091BB00F0E0EC53FB4F58
:102AC00080838091E70481116DC081E08093C2040E
:102AD00084EA61C083E08093E8041092BC04CFCF05
:102AE0008091BC04803208F051C0E091BC0481E0C8
:102AF0008E0F8093BC048091BB00F0E0E456FB4F46
:102B00008083BDCF85EC8093BC001092E804809157
:102B1000BC04803230F4E091BC04F0E0E456FB4F9A
:102B200010826091BC0470E0E0917804F091790427
:102B30008CE994E019951092BC0435C084E0809330
:102B4000E80410929B0410929A04E0917604F091AC
:102B50007704199580919A04811105C081E08093D2
:102B60009A0410927A04E0919B0481E08E0F809386
:102B70009B04F0E0E658FB4F80818093BB0090916E
:102B80009B0480919A04981708F479CF85E8809384
:102B9000BC0009C085EC8093BC001092E80403C01F
:102BA0001092E6041EDDFF91EF91BF91AF919F91CE
:102BB0008F917F916F915F914F913F912F910F90E6
:102BC0000BBE0F900FBE0F901F90189540919A0466
:102BD000262F30E0240F311D21323105DCF4209105
:102BE000E8042430C9F4FC0180E090E0861758F432
:102BF00030919A042191DC01A658BB4FA30FB11D5F
:102C00002C930196F3CF80919A04680F60939A04F5
:102C100080E0089581E0089582E00895CF93DF93E6
:102C2000FC01A081B181109701F1EC01ED91FC91C3
:102C300011970190F081E02D69EFCD011995888100
:102C40009981DC01ED91FC910190F081E02D62E031
:102C5000199588819981DC01ED91FC910190F081B9
:102C6000E02D65E0DF91CF911994DF91CF91089528
:102C70001F93CF93DF93182FEB01809164079091FE
:102C8000650768177907A8F0E0919107F09192071E
:102C900081E03097C1F08093610780917D0790912A
:102CA0007E0719958091640790916507C817D90729
:102CB00048F48091620790916307C80FD91F188369
:102CC00080E001C081E0DF91CF911F910895AC01B8
:102CD000FB0180E090E09C01220F331F2417350791
:102CE00070F4DB012C91208311963C9137953327AA
:102CF0003795232B219301966E5F7F4FECCF08957C
:102D00001F93CF93DF931F921F92CDB7DEB7182F7B
:102D10007A83698380915F0790916007009709F437
:102D20004EC0DC01ED91FC911031A8F461157044A6
:102D300090F4612F606E0190F081E02D199522E0F2
:102D400030E0AE014F5F5F4F62E070E08FE597E0EB
:102D50000E94E50634C00190F081E02D60EF1995E6
:102D600080915F0790916007DC01ED91FC910190EB
:102D7000F081E02D6FE6199580915F0790916007D3
:102D8000DC01ED91FC910190F081E02D612F19950E
:102D900022E030E0AE014F5F5F4F62E070E08FE510
:102DA00097E00E94E50680915F0790916007DC0143
:102DB000ED91FC910190F081E02D67EF19950F9056
:102DC0000F90DF91CF911F910895EF92FF920F9393
:102DD0001F93CF93DF93C82F80915F079091600777
:102DE0000097C9F17A018B01DC01ED91FC91019012
:102DF000F081E02D60EF199580915F079091600759
:102E0000DC01ED91FC910190F081E02D6C2F199582
:102E1000E7010E0D1F1DC017D10759F020E030E06B
:102E2000AE0161E070E08FE597E00E94E506219633
:102E3000F2CF80915F0790916007DC01ED91FC91EA
:102E40000190F081E02D67EFDF91CF911F910F91FD
:102E5000FF90EF901994DF91CF911F910F91FF9008
:102E6000EF900895FC0101900020E9F73197BF0130
:102E7000681B790BAC0181E7A8CFA0919D07B091A9
:102E80009E07ED91FC9111970190F081E02D682F44
:102E9000CD011994282F30910C05313208F04AC029
:102EA0008091E8048111FCCF90910B0542E04093A2
:102EB000E8042093E7042FEF2093E6041092E50442
:102EC0003093E404EBEEF4E0A4ECB4E020E032173D
:102ED00021F041914D932F5FFACF1092C3042091BE
:102EE000C304990F922B9093C3049091C204913024
:102EF00061F41092C2049091C3049093BB0090912E
:102F0000BC0093FDF8CF95EC01C095EE9093BC000A
:102F10009091E8049230E1F39091E6049F3F79F0BC
:102F20008091E604803241F08091E604803331F0F4
:102F300084E005C081E003C082E001C083E010921C
:102F4000EA0410920C051092E9040895789484B56F
:102F5000826084BD84B5816084BD85B5826085BD95
:102F600085B5816085BD80916E00816080936E0023
:102F70001092810080918100826080938100809115
:102F800081008160809381008091800081608093C6
:102F900080008091B10084608093B1008091B00086
:102FA00081608093B0008091910082608093910055
:102FB0008091910081608093910080919000816068
:102FC000809390008091A10082608093A100809105
:102FD000A10081608093A1008091A0008160809316
:102FE000A0008091210182608093210180912101C4
:102FF0008160809321018091200181608093200174
:1030000080917A00846080937A0080917A00826057
:1030100080937A0080917A00816080937A00809119
:103020007A00806880937A001092C10088E18093D2
:103030009F078091A0079091A1070E944320C09113
:103040009F07D0E0CE01019686D79093A107809389
:10305000A007FC01EC0FFD1F108212E0DC011C93A5
:1030600025E011962C93AE01425051096EE672E0B4
:1030700002960E94F12080EA92E090931F038093D1
:103080001E038AEE91E090931D0380931C0385EB51
:1030900091E090931B0380931A038DEC97E090933B
:1030A00019038093180382E695E0909317038093A9
:1030B000160385E294E0909315038093140386ED44
:1030C0009BE090932103809320038FE19AE09093FB
:1030D000230380932203E0911D05F0911E051083C8
:1030E000E0911D05F0911E051082E0911905F09107
:1030F0001A051082E0911B05F0911C0580E1808388
:1031000010922505E0912105F091220586E080834B
:10311000E0911F05F0912005808180618083E0911E
:103120001F05F0912005808188608083E0911F0554
:10313000F0912005808180688083E0911F05F091E7
:10314000200580818F7D808380917408811135C036
:1031500061E08DE02DDBC0E062ED70E080E090E0AA
:1031600082DB61E08DE0F6DA68E270E080E090E01A
:103170007ADB60E08DE0EEDACF5FC23069F76AEFAC
:1031800070E080E090E06FDBC0E062ED70E080E036
:1031900090E069DB61E08DE0DDDA68E270E080E01C
:1031A00090E061DB60E08DE0D5DACF5FC53069F794
:1031B0006DE770E080E090E056DB8DE095E0909365
:1031C0009E0780939D079093600780935F078FE52C
:1031D00097E024DD8FE197E00E9452080E941F0AC9
:1031E0000E94C40BD5E0DD24D39402E010E0EE246D
:1031F000E394F12C80912D03882391F1C090240356
:10320000C2FE92C482E07EDA892B09F48DC4C4E048
:10321000C3FE05C083E076DA892B09F087C4C4FEBB
:1032200005C084E06FDA892B09F082C4C5FE05C0B1
:1032300085E068DA892B09F07DC4C6FE05C086E00A
:1032400061DA892B09F078C4C7FE05C087E05ADA35
:10325000892B09F073C440E06C2F80E00E948B073B
:1032600080912E03882309F440C0C0902503C0FE3E
:1032700067C488E047DA892B09F462C4C1E0C1FE63
:1032800005C089E03FDA892B09F05CC4C2FE05C0A5
:103290008AE038DA892B09F057C4C3FE05C08BE0F9
:1032A00031DA892B09F052C4C4FE05C08CE02ADA59
:1032B000892B09F04DC4C5FE05C08DE023DA892BAA
:1032C00009F048C4C6FE05C08EE01CDA892B09F05F
:1032D00043C4C7FE05C08FE015DA892B09F03EC450
:1032E00040E06C2F81E00E948B0780912F038823A0
:1032F00009F440C0C0902603C0FE32C480E102DA67
:10330000892B09F42DC4C1E0C1FE05C081E1FAD9C1
:10331000892B09F027C4C2FE05C082E1F3D9892BAD
:1033200009F022C4C3FE05C083E1ECD9892B09F062
:103330001DC4C4FE05C084E1E5D9892B09F018C479
:10334000C5FE05C085E1DED9892B09F013C4C6FE90
:1033500005C086E1D7D9892B09F00EC4C7FE05C088
:1033600087E1D0D9892B09F009C440E06C2F82E0B5
:103370000E948B0780913003882309F440C0C090DD
:103380002703C0FEFDC388E1BDD9892B09F4F8C32A
:10339000C1E0C1FE05C089E1B5D9892B09F0F2C3AE
:1033A000C2FE05C08AE1AED9892B09F0EDC3C3FE88
:1033B00005C08BE1A7D9892B09F0E8C3C4FE05C07D
:1033C0008CE1A0D9892B09F0E3C3C5FE05C08DE1CE
:1033D00099D9892B09F0DEC3C6FE05C08EE192D9CA
:1033E000892B09F0D9C3C7FE05C08FE18BD9892B82
:1033F00009F0D4C340E06C2F83E00E948B078091DA
:103400003103882309F440C0C0902803C0FEC8C31C
:1034100080E278D9892B09F4C3C3C1E0C1FE05C09D
:1034200081E270D9892B09F0BDC3C2FE05C082E2DA
:1034300069D9892B09F0B8C3C3FE05C083E262D9FC
:10344000892B09F0B3C3C4FE05C084E25BD9892B84
:1034500009F0AEC3C5FE05C085E254D9892B09F039
:10346000A9C3C6FE05C086E24DD9892B09F0A4C3C5
:10347000C7FE05C087E246D9892B09F09FC340E00B
:103480006C2F84E00E948B0780913203882309F41B
:1034900040C0C0902903C0FE93C388E233D9892B72
:1034A00009F48EC3C1E0C1FE05C089E22BD9892B86
:1034B00009F088C3C2FE05C08AE224D9892B09F02D
:1034C00083C3C3FE05C08BE21DD9892B09F07EC3DF
:1034D000C4FE05C08CE216D9892B09F079C3C5FE5C
:1034E00005C08DE20FD9892B09F074C3C6FE05C053
:1034F0008EE208D9892B09F06FC3C7FE05C08FE2A1
:1035000001D9892B09F06AC340E06C2F85E00E9445
:103510008B0780913303882309F440C0C0902A03AD
:10352000C0FE5EC380E3EED8892B09F459C3C1E025
:10353000C1FE05C081E3E6D8892B09F053C3C2FE62
:1035400005C082E3DFD8892B09F04EC3C3FE05C056
:1035500083E3D8D8892B09F049C3C4FE05C084E3AE
:10356000D1D8892B09F044C3C5FE05C085E3CAD86C
:10357000892B09F03FC3C6FE05C086E3C3D8892B5B
:1035800009F03AC3C7FE05C087E3BCD8892B09F010
:1035900035C340E06C2F86E00E948B078091340396
:1035A000882309F440C0C0902B03C0FE29C388E3E0
:1035B000A9D8892B09F424C3C1E0C1FE05C089E361
:1035C000A1D8892B09F01EC3C2FE05C08AE39AD890
:1035D000892B09F019C3C3FE05C08BE393D8892B4F
:1035E00009F014C3C4FE05C08CE38CD8892B09F004
:1035F0000FC3C5FE05C08DE385D8892B09F00AC32A
:10360000C6FE05C08EE37ED8892B09F005C3C7FE30
:1036100005C08FE377D8892B09F000C340E06C2FF9
:1036200087E00E948B0780913503882391F1C09039
:103630002C03C0FEF5C280E465D8892B09F4F0C2E2
:10364000C1E0C1FE05C081E45DD8892B09F0EAC262
:10365000C2FE05C082E456D8892B09F0E5C2C3FE3C
:1036600005C083E44FD8892B09F0E0C2C4FE05C031
:1036700084E448D8892B09F0DBC2C5FE05C085E487
:1036800041D8892B09F0D6C240E06C2F88E00E9417
:103690008B0780919D0790919E07DC01ED91FC9135
:1036A0000084F185E02D1995892B09F4C8C180911A
:1036B0009D0790919E07DC01ED91FC910284F385BA
:1036C000E02D19959C018F3FBFEF9B0711F3982FB9
:1036D00080916A07882309F48DC0973F09F07AC06A
:1036E00010926A07A0916207B09163076C916137ED
:1036F000B1F1693709F058C0E0919707F091980748
:10370000309739F280916B0790916C078330910567
:1037100038F420E030E040E050E060E070E019C0B4
:10372000BD016D5F7F4F0397D2DABC016D5F7F4FA4
:1037300080E09EDAE0916207F09163079F012D5FC0
:103740003F4F428150E0618170E0E0919707F09136
:1037500098078091790790917A0719959ACF80916F
:10376000930790919407892B09F493CFBD016F5F64
:103770007F4F80916B0790916C070197A8DABC018D
:103780006F5F7F4F80E074DA60916207709163072A
:103790006F5F7F4FE0919307F091940780917F07CF
:1037A00090918007199575CFE0919507F091960754
:1037B000309709F46ECF9D012F5F3F4F40916B070B
:1037C00050916C0741505109809181079091820777
:1037D00019955FCF60916B0770916C07822F48DA63
:1037E00080916B0790916C07019690936C07809382
:1037F0006B074FCF6091680770916907611571057C
:1038000009F4AEC027FDACC061507109709369071F
:1038100060936807822F2CDA80916807909169077E
:10382000892B09F036CF80916607882309F431CFC0
:10383000803D09F47FC030F4803939F1803C09F4CF
:1038400066C08BC0843FE1F1853F09F44DC0803EE6
:1038500009F083C0E0918507F0918607309709F45D
:103860007CC0A0916207B09163078C9111964C9136
:1038700050E090E8899F400D511D11246091670729
:1038800080916D0790916E0767C0E0918707F09176
:103890008807309709F461C0A0916207B09163076F
:1038A0008C9111964C9150E0A0E88A9F400D511DDB
:1038B00011246091670780916F07909170074CC049
:1038C000E0918D07F0918E07309709F446C0A091E2
:1038D0006207B09163074C9150E011966C91809112
:1038E00075079091760738C0E0918F07F0919007A7
:1038F000309799F1A0916207B09163074C9150E025
:1039000011966C91809177079091780725C0E0918E
:103910008907F0918A07309701F1A0916207B09171
:1039200063074C9150E06091670780917107909117
:10393000720712C0E0918B07F0918C07309769F005
:10394000A0916207B09163074C9150E060916707C6
:10395000809173079091740719951092660799CE1C
:10396000903F30F4822F8F7080936707922F907F63
:10397000903F79F158F4903C29F118F49039E9F02E
:1039800088CE903DF9F0903EC1F083CE993F09F486
:1039900049C028F48CE0890F823078F07ACE9F3FBE
:1039A00009F077CE109269071092680710926607A7
:1039B0001092670780E090E013C0109369070093AE
:1039C000680704C0F0926907E09268079093660761
:1039D00060CED0926A0710926C0710926B0759CE96
:1039E00020916407309165078217930748F4E091AE
:1039F0006207F0916307E80FF91F10820196F0CF7C
:103A000010926A0710926C0710926B07E0919B0767
:103A1000F0919C07309709F43CCE809183079091F8
:103A200084070BC0E0919907F0919A07309709F449
:103A300030CE80917B0790917C0719952ACE8FB765
:103A4000F894409136035091370360913803709198
:103A500039038FBF8090640390906503A090660344
:103A6000B09067032091010230910202C901A0E0E9
:103A7000B0E0481959096A097B0984179507A60718
:103A8000B70708F04EC0880D991DAA1DBB1D809375
:103A9000640390936503A0936603B093670382EA7F
:103AA000A82E87E0B82ECAECC031B0F4F5018081B1
:103AB000823091F480916203909163030C2E02C0D6
:103AC000959587950A94E2F780FF06C08C2F0E9497
:103AD0001414BC018C2F14D9CF5FFFEFAF1ABF0AAB
:103AE000C03111F78091000287FD1BC0C0E02C2F70
:103AF00030E080910002082E000C990B821793078A
:103B000084F0D29FF001D39FF00D1124E65CFC4FAE
:103B1000618172812481438180810E944104CF5F51
:103B2000E6CF0E943E1266CBC0E072CBC86077CB76
:103B3000C0617CCBC06281CBC06486CBC0688BCBBC
:103B4000C0E09DCBC260A2CBC460A7CBC860ACCBA9
:103B5000C061B1CBC062B6CBC064BBCBC068C0CBC8
:103B6000C0E0D2CBC260D7CBC460DCCBC860E1CBB5
:103B7000C061E6CBC062EBCBC064F0CBC068F5CBD4
:103B8000C0E007CCC2600CCCC46011CCC86016CCBD
:103B9000C0611BCCC06220CCC06425CCC0682ACCDC
:103BA000C0E03CCCC26041CCC46046CCC8604BCCC9
:103BB000C06150CCC06255CCC0645ACCC0685FCCE8
:103BC000C0E071CCC26076CCC4607BCCC86080CCD5
:103BD000C06185CCC0628ACCC0648FCCC06894CCF4
:103BE000C0E0A6CCC260ABCCC460B0CCC860B5CCE1
:103BF000C061BACCC062BFCCC064C4CCC068C9CC00
:103C0000C0E0DBCCC260E0CCC460E5CCC860EACCEC
:103C1000C061EFCCC062F4CCC064F9CCC068FECC0B
:103C2000C0E00FCDC26014CDC46019CDC8601ECDF8
:103C3000C06123CDC06228CD1092100510920F05EF
:103C400088EE93E0A0E0B0E0809311059093120518
:103C5000A0931305B09314052DE032E030930E05C8
:103C600020930D0525EC30E030931A0520931905BB
:103C700024EC30E030931C0520931B0520EC30E051
:103C800030931E0520931D0521EC30E03093200574
:103C900020931F0522EC30E030932205209321056C
:103CA00026EC30E03093240520932305109226055E
:103CB0001092270510922805109229051092AD0543
:103CC0001092AC058093AE059093AF05A093B0051C
:103CD000B093B1058FE192E09093AB058093AA0574
:103CE000E6EBF5E01182108213821282399625E00C
:103CF000EE3FF207B9F780918E06AFE8B6E09FEF8E
:103D000048EB5BE0803378F48C93282F30E0F901A6
:103D1000EE0FFF1F2E0F3F1FF901E250FA4F5283A3
:103D200041838F5F01C09C93139627E0AF31B207A8
:103D300049F780938E068FE197E01092600710920A
:103D40005F07909363078093620720E430E030932D
:103D50006507209364071092660710926707109218
:103D600069071092680710926A0710926C07109208
:103D70006B0710926E0710926D07109270071092E9
:103D80006F071092720710927107109274071092C9
:103D900073071092760710927507109278071092A9
:103DA000770710927E0710927D071092800710927D
:103DB0007F07109282071092810710928407109259
:103DC0008307109292071092910710926107109248
:103DD0009F071092A1071092A007109274082BEA77
:103DE00031E0309386072093850721EA31E0309354
:103DF00088072093870723E831E030938A072093D0
:103E0000890729E731E030938C0720938B0727E956
:103E100031E030938E0720938D072DE831E0309309
:103E2000900720938F0728E731E030939407209381
:103E300093072DE631E0309396072093950724EC05
:103E400038E0309398072093970790937A078093F0
:103E500079072AE334E030939A07209399079093E7
:103E60007C0780937B0785E691E090939C07809385
:103E70009B070895052E97FB16F400940FD057FD6D
:103E800005D024D007FC02D046F408C050954095D8
:103E9000309521953F4F4F4F5F4F089590958095F6
:103EA000709561957F4F8F4F9F4F089531D0A59F9B
:103EB000900DB49F900DA49F800D911D1124089525
:103EC000B7FFF4CFF3DF821B930B0895A1E21A2E04
:103ED000AA1BBB1BFD010DC0AA1FBB1FEE1FFF1FAE
:103EE000A217B307E407F50720F0A21BB30BE40BFE
:103EF000F50B661F771F881F991F1A9469F7609545
:103F00007095809590959B01AC01BD01CF010895FE
:103F1000A29FB001B39FC001A39F700D811D11240A
:103F2000911DB29F700D811D1124911D0895991B43
:103F300079E004C0991F961708F0961B881F7A95A0
:103F4000C9F780950895EE0FFF1F881F8BBF07905C
:103F5000F691E02D19940F931F93CF93DF93823046
:103F6000910510F482E090E0E0917708F0917808F4
:103F700020E030E0A0E0B0E0309719F140815181BD
:103F80000281138148175907C8F08417950769F40F
:103F9000109731F012960C93129713961C9327C02A
:103FA000009377081093780822C02115310519F085
:103FB0004217530718F49A01BD01EF01DF01F80120
:103FC000DBCF21153105F9F0281B390B24303105E1
:103FD00080F48A819B816115710521F0FB01938337
:103FE000828304C09093780880937708FE0132960C
:103FF00044C0FE01E20FF31F8193919322503109D7
:10400000398328833AC02091750830917608232B94
:1040100041F42091050230910602309376082093F6
:10402000750820910302309104022115310541F4F5
:104030002DB73EB74091070250910802241B350B63
:10404000E0917508F0917608E217F307A0F42E1BB3
:104050003F0B2817390778F0AC014E5F5F4F2417EC
:10406000350748F04E0F5F1F509376084093750850
:104070008193919302C0E0E0F0E0CF01DF91CF9116
:104080001F910F910895CF93DF93009709F481C09A
:10409000FC01329713821282A0917708B0917808C0
:1040A000109781F420813181820F931F2091750830
:1040B000309176082817390751F5F0937608E09388
:1040C000750867C0ED0120E030E0CE17DF0740F44F
:1040D0004A815B819E0141155105F1F0EA01F5CF5E
:1040E000D383C28340815181840F951FC817D9079C
:1040F00059F488819981840F951F0296918380835A
:104100008A819B81938382832115310529F4F09361
:104110007808E09377083DC0E901FB83EA83499181
:104120005991C40FD51FEC17FD0761F4808191816F
:10413000840F951F0296E901998388838281938178
:104140009B838A83E0E0F0E012968D919C91139717
:10415000009719F0FD01DC01F7CF8D919C9111972B
:104160009D012E5F3F4F820F931F20917508309164
:1041700076082817390769F4309729F410927808DF
:104180001092770802C013821282B0937608A0932F
:104190007508DF91CF91089581E090E0F89430C0E8
:1041A000FB01DC0102C001900D9241505040D8F754
:1041B00008956817790768F4FB01DC01E40FF51F27
:1041C000A40FB51F02C002900E9241505040D8F784
:1041D0000895E6CFDC0101C06D9341505040E0F7F7
:1041E0000895FB01DC014150504048F001900D92D0
:1041F0000020C9F701C01D9241505040E0F70895DA
:04420000F894FFCF60
:10420400FF130000007908800000000000D1113F76
:104214001169111D129A1178118C110000000029E6
:1042240009FC08D108FD12C8080D13FE122F55739E
:104234006572732F616A6669736865722F64657647
:104244002F6E6F64652D706978656C2F6669726D69
:10425400776172652F6275696C642F6E6F64655F38
:10426400706978656C5F6669726D6174612F6E6FD9
:1042740064655F706978656C5F6669726D617461AD
:104284002E696E6F004932433A20546F6F206D617E
:104294006E792062797465732072656365697665E9
:1042A40064004932433A20546F6F20666577206278
:1042B40079746573207265636569766564004D6120
:1042C4007820736572766F732061747461636865B6
:1042D4006400556E6B6E6F776E2070696E206D6F23
:1042E40064650031302D62697420616464726573A1
:1042F40073696E67206E6F7420737570706F72745B
:10430400656400746F6F206D616E792071756572DC
:044314006965730064
:00000001FF
