:1000000007C1000034C1000032C1000030C100004F
:100010002EC100002CC100002AC1000028C1000030
:1000200026C1000024C1000022C1000020C1000040
:100030001EC100001CC100001AC1000018C1000050
:1000400016C1000014C1000012C1000010C1000060
:100050000EC100000CC100000AC10000DAC500009A
:1000600006C1000004C1000002C1000000C1000080
:10007000FEC00000FCC00000FAC00000F8C0000094
:10008000F6C00000F4C00000F2C00000F0C00000A4
:10009000EEC00000ECC00000EAC0000004C6000092
:1000A000E6C00000E4C00000E2C00000E0C00000C4
:1000B000DEC00000DCC00000DAC00000D8C00000D4
:1000C000D6C00000D4C00000D2C00000D0C00000E4
:1000D000CEC00000CCC00000CAC00000C8C00000F4
:1000E000C6C000006501680157015B015F019F0107
:1000F0006C01700176017A017E01840188018C0116
:100100009F01920196019A0100002100240027001E
:100110002A002D0030003300010100000401070116
:100120000A0100002200250028002B002E003100CB
:10013000340002010000050108010B010505050559
:10014000070508080808020202020A0A080804044F
:10015000040401010101010101010303030303037D
:100160000303040707070C0C0C0C0C0C0C0C02020C
:10017000020206060606060606060B0B0B0B0B0B09
:100180000B0B010210202008081020401020408096
:10019000020102010804020101020408102040804B
:1001A00080402010080402018004020180402010D9
:1001B0000804020108040201010204081020408022
:1001C000010204081020408000000A0B02090C0DF7
:1001D0000E080703040100000000000000000000FA
:1001E000000000000000000000000000000000000F
:1001F00000000000121110000000000000000000CC
:100200000000000000000000000000000000840763
:1002100011241FBECFEFD1E2DEBFCDBF00E00CBF87
:1002200012E0A0E0B2E0ECE6F3E100E00BBF02C0B8
:1002300007900D92A831B107D9F723E0A8E1B2E009
:1002400001C01D92A033B207E1F711E0C8E0D1E090
:1002500000E005C021970109802FFE0137D7C73084
:10026000D10780E00807B1F771D60C94B409C8CE65
:1002700090E0FC01E853FE4F4491FC01EE57FE4F25
:100280002491FC01E45CFE4F9491992309F465C02C
:10029000442309F454C050E0FA013197E231F105EA
:1002A00008F04DC08827EE58FF4F8F4F0FC7809141
:1002B00080008F7707C0809180008F7D03C0809180
:1002C0008000877F809380003AC084B58F7702C01A
:1002D00084B58F7D84BD33C08091B0008F7703C01B
:1002E0008091B0008F7D8093B00029C080919000F4
:1002F0008F7707C0809190008F7D03C08091900020
:10030000877F809390001BC08091A0008F7707C0EB
:100310008091A0008F7D03C08091A000877F809393
:10032000A0000DC0809120018F7707C0809120012F
:100330008F7D03C080912001877F80932001E92F6A
:10034000F0E0EE0FFF1FEE5DFE4FA591B4918FB769
:10035000F894EC91E22BEC938FBF08950895CF931E
:10036000DF93AC01E091D602F091D7023097F1F023
:100370009091D5028091D4029817C0F090E0292F77
:1003800030E02617370754F4D901A55CBD4FEA01C8
:10039000C20FD31F28812C939F5FF1CF1092D502FB
:1003A0006093D402CB01DF91CF911994DF91CF916B
:1003B0000895CF92DF92EF92FF920F931F93CF9306
:1003C000DF936C017A018B01C0E0D0E0CE15DF0530
:1003D00081F0D8016D918D01D601ED91FC910190D4
:1003E000F081E02DC6011995892B11F02196EECFF1
:1003F0007E01C701DF91CF911F910F91FF90EF9088
:10040000DF90CF9008953FB7F8948091C702909104
:10041000C802A091C902B091CA0226B5A89B05C026
:100420002F3F19F00196A11DB11D3FBFBA2FA92F73
:10043000982F8827820F911DA11DB11DBC01CD01F0
:1004400042E0660F771F881F991F4A95D1F70895DC
:1004500085ED8093BC008091BC0084FDFCCF1092A0
:10046000D102089540917B02262F30E0240F311DE8
:1004700021323105DCF42091D1022430C9F4FC0191
:1004800080E090E0861758F430917B022191DC01E6
:10049000A55ABD4FA30FB11D2C930196F3CF8091A8
:1004A0007B02680F60937B0280E0089581E00895ED
:1004B00082E008950895E091D5028091D402E81772
:1004C00030F4F0E0E55CFD4F808190E008958FEF1F
:1004D0009FEF08959091D5028091D402981750F41F
:1004E000E92FF0E0E55CFD4F208130E09F5F9093C5
:1004F000D50202C02FEF3FEFC90108958091D402C9
:1005000090E02091D502821B91090895CF93DF934B
:10051000CB01EA01642FA6DFCE01DF91CF910895D0
:10052000CF93DF931F92CDB7DEB7698361E0CE0131
:10053000019698DF81E090E00F90DF91CF910895D0
:10054000089580E090E008952091390230913A02B8
:1005500082179307F8F49C01220F331F820F931F19
:10056000E0913702F0913802209136028E0F9F1FE2
:10057000FC01E20FF11D608320913502FC01E20FC6
:10058000F11D508320913402FC01E20FF11D4083E4
:1005900080E0089581E00895DC0170E0FB01EE57F2
:1005A000FE4FE4911896EC931897645C7E4FFB0124
:1005B0008491E82FF0E0EE0FFF1FEE5DFE4F859176
:1005C000949115969C938E931497FB016491E62F5A
:1005D000F0E0EE0FFF1FE85FFE4F859194911796B4
:1005E0009C938E93169708950F931F93CF938093A8
:1005F00033021092320210923A0210923902E2E271
:10060000F2E0AAE1B2E0119211921D9292E0E2337F
:10061000F907C9F7882359F004EE12E0C0E06C2F07
:10062000C801BADFCF5F075F1F4FC830C1F7CF9156
:100630001F910F91089573D66F927F928F929F9220
:10064000AF92BF92CF92DF92EF92FF920F931F93E0
:10065000CF93DF93CDB7DEB760970FB6F894DEBFC8
:100660000FBECDBF5C0110E0E12EF12CEA14FB04BB
:1006700084F488ED92E0103148F42CDFE1E0F0E002
:10068000EC0FFD1FEE0DFF1D808301C023DF1F5FF8
:10069000EBCF9981892F8F70833009F4E0C030F45B
:1006A000813009F430C1823041F09EC2843009F4B7
:1006B00079C0853009F4D6C197C2809119028111A1
:1006C00093C28091180281118FC281E08093190238
:1006D00010E009E080913202181708F060C0812F05
:1006E00090E0AC01465E5D4FDA012C91222309F4C3
:1006F00052C0C0903702D0903802089FD001099FA5
:10070000B00D1124AC51BD4F16962D913C91179709
:10071000F901808118969C911897982B90831496D4
:100720006D917C9115971896FC9018978D919C91DE
:1007300011979C01220F331F280F391F12968D919C
:100740009C911397DC01AA0FBB1F8A0F9B1FF60118
:10075000E80FF91FDB018C919F2D90959823C82EEF
:10076000CF28FFB6F8942E0F3F1FE217F30789F04A
:10077000E190DB0188E0CC9200C0E7FE9C93EE0C98
:1007800000C000C000C008F49C9300C08A9599F78F
:10079000ECCFFFBE7894DA011C921F5F9BCF1092C2
:1007A000190222C28091180281111EC28C8190E030
:1007B000A0E0B0E0AC01BD01EEE0440F551F661FA4
:1007C000771FEA95D1F79D81892F90E0A0E0B0E0F6
:1007D000F5E1880F991FAA1FBB1FFA95D1F7840F67
:1007E000951FA61FB71F2A81820F911DA11DB11D44
:1007F000CB80D12CE12CF12C17E0CC0CDD1CEE1CB5
:10080000FF1C1A95D1F7C80ED91EEA1EFB1EC11493
:10081000D104E104F10419F000E010E011C04091AE
:10082000390250913A02CA01880F991F480F591F87
:1008300060E070E080913702909138028ED5A2C1BD
:100840008091390290913A020817190708F09AC16D
:10085000B701A601C80178DE0F5F1F4FF1CF80916D
:1008600018028111C1C18B810A8110E0B0E88B9F11
:10087000000D111D11248E8190E0A0E0B0E0AC01CC
:10088000BD01EEE0440F551F661F771FEA95D1F7B3
:100890009F81892F90E0A0E0B0E0F5E1880F991FDB
:1008A000AA1FBB1FFA95D1F7840F951FA61FB71F6C
:1008B0002C81820F911DA11DB11D4D8150E060E082
:1008C00070E027E0440F551F661F771F2A95D1F768
:1008D000480F591F6A1F7B1FC80136DE4091320244
:1008E000A2E2B2E080E090E0841708F07DC1FC0154
:1008F0002D913D91019602171307B0F7E65EFD4F6B
:1009000081E0808371C1913009F06EC1E2E0EA15A7
:1009100008F06AC18091330267DE8BEAA89EF12C51
:100920001124F69432E2832E32E0932E44EEA42E6C
:1009300042E0B42ECE0101966C01E12C7724739431
:1009400052E0652E80913302811106C0D6011196C6
:100950006C916F71C50120DEF601818190E025E088
:10096000959587952A95E1F78130910551F0823070
:10097000910571F0892B91F4109235027092360234
:1009800004C010923602709235026092340206C0A2
:10099000109234027092360260923502D60113969C
:1009A0008C91139712960C9110E0B0E88B9F000D7C
:1009B000111D1124F50111830083EE2029F0F401AB
:1009C00032978081918102C080E090E09801280FE9
:1009D000391FD4012D933D934D01F50193838283FB
:1009E0008091390290913A02080F191F10933A0230
:1009F00000933902809132028F5F80933202E39438
:100A0000F9E0AF0EB11C23E0C20ED11CFE109ACF4C
:100A10008091370290913802009729F0F7D3109215
:100A20003A02109239020115110509F4DDC078016E
:100A3000EE0CFF1CE00EF11EC70150D3909338025C
:100A400080933702009749F0A70160E070E085D4F9
:100A500010933A0200933902C7C010923A021092E2
:100A60003902C2C08A81982F9F7109F48BC0A82FC8
:100A7000A072AA2E092F000F090F21E0209318025F
:100A800010E0E92EF12CB82FB074BB2E86FF25C0E4
:100A9000C80124D36C01009721F0A80160E070E048
:100AA0005CD4AA2039F06091390270913A026E1933
:100AB0007F0902C060E070E0CB01880F991F680FCA
:100AC000791F8091370290913802680F791FA80131
:100AD000C60129D4A11072C018C0AA23B1F0809118
:100AE0003702909138024091390250913A024E19E2
:100AF0005F099A01220F331F420F531FBC01800F61
:100B0000911F1AD480E090E02CC080903902909020
:100B10003A028E189F088091370290913802A40102
:100B2000440F551F480D591DBC01600F711F04D49F
:100B3000BB2089F0C401880F991F880E991E8091EF
:100B4000370290913802A801B601880D991DEBD3A8
:100B5000C6015CD315C08091390290913A028E197A
:100B60009F099C01220F331F820F931F2091370290
:100B700030913802A80160E070E0820F931FEDD33E
:100B8000109218024091320250E061E070E08AE178
:100B900092E060960FB6F894DEBF0FBECDBFDF9136
:100BA000CF911F910F91FF90EF90DF90CF90BF906A
:100BB000AF909F908F907F906F90CFC380913702BE
:100BC000909138024091390250913A024E195F09D2
:100BD0009A01220F331F420F531FBC01800F911F38
:100BE000ABD3812C912CA6CF60960FB6F894DEBFC4
:100BF0000FBECDBFDF91CF911F910F91FF90EF906E
:100C0000DF90CF90BF90AF909F908F907F906F902C
:100C100008951F920F920FB60F9211242F933F93B6
:100C20008F939F93AF93BF938091C3029091C4021F
:100C3000A091C502B091C6023091C20223E0230FF9
:100C40002D3720F40196A11DB11D05C026E8230F04
:100C50000296A11DB11D2093C2028093C3029093FE
:100C6000C402A093C502B093C6028091C7029091BE
:100C7000C802A091C902B091CA020196A11DB11D7E
:100C80008093C7029093C802A093C902B093CA028E
:100C9000BF91AF919F918F913F912F910F900FBE78
:100CA0000F901F9018951F920F920FB60F9211245C
:100CB0000BB60F922F933F934F935F936F937F9356
:100CC0008F939F93AF93BF93EF93FF938091B9005E
:100CD000887F803609F49CC068F5883209F45BC0CF
:100CE00090F4803109F454C038F4882309F4F6C034
:100CF000883009F44DC0F5C0883109F44CC0803209
:100D000009F45DC0EEC0803409F468C048F4803353
:100D100009F455C0883309F0E4C080939E02D8C01E
:100D2000803509F44FC0883509F45DC0883409F076
:100D3000D8C0D6C0883909F4C7C0A8F4883709F4E8
:100D400067C038F4883609F463C0803709F460C09E
:100D5000C8C0883809F4B8C0803909F45FC0803849
:100D600009F0BFC05BC0803B09F486C038F4803A0C
:100D700009F466C0883A09F47FC0B3C0803C09F426
:100D8000A7C0883C09F4A4C0883B09F48AC0A9C064
:100D90008091C10210C09091C0028091BF0298174B
:100DA00070F5E091C00281E08E0F8093C002F0E008
:100DB000E156FD4F80818093BB0085EC86C0809317
:100DC0009E028EC0E091C00281E08E0F8093C0022F
:100DD0008091BB00F0E0E156FD4F80839091C0020E
:100DE0008091BF026EC0E091C00281E08E0F8093BF
:100DF000C0028091BB00F0E0E156FD4F80838091FE
:100E0000D00281116DC081E08093CF0284EA61C07D
:100E100083E08093D10210929D02CFCF80919D02FA
:100E2000803208F051C0E0919D0281E08E0F8093E6
:100E30009D028091BB00F0E0E358FD4F8083BDCF61
:100E400085EC8093BC001092D10280919D0280328B
:100E500030F4E0919D02F0E0E358FD4F1082609184
:100E60009D0270E0E091CB02F091CC028DE792E020
:100E7000199510929D0235C084E08093D1021092A2
:100E80007C0210927B02E091CD02F091CE02199586
:100E900080917B02811105C081E080937B021092DA
:100EA0005B02E0917C0281E08E0F80937C02F0E097
:100EB000E55AFD4F80818093BB0090917C02809128
:100EC0007B02981708F479CF85E88093BC0009C0AD
:100ED00085EC8093BC001092D10203C010929E0258
:100EE000B7DAFF91EF91BF91AF919F918F917F9171
:100EF0006F915F914F913F912F910F900BBE0F908B
:100F00000FBE0F901F9018951092DB021092DA021C
:100F100088EE93E0A0E0B0E08093DC029093DD02E5
:100F2000A093DE02B093DF028AE092E09093D902B0
:100F30008093D802E4EEF2E01182108213821282D2
:100F4000399683E0EC32F807B9F70895789484B5C0
:100F5000826084BD84B5816084BD85B5826085BDB5
:100F600085B5816085BD80916E00816080936E0043
:100F70001092810080918100826080938100809135
:100F800081008160809381008091800081608093E6
:100F900080008091B10084608093B1008091B000A6
:100FA00081608093B0008091910082608093910075
:100FB0008091910081608093910080919000816088
:100FC000809390008091A10082608093A100809125
:100FD000A10081608093A1008091A0008160809336
:100FE000A0008091210182608093210180912101E4
:100FF0008160809321018091200181608093200194
:1010000080917A00846080937A0080917A00826077
:1010100080937A0080917A00816080937A00809139
:101020007A00806880937A001092C1001092D502F5
:101030001092D4021092D3021092D2021092D102D6
:1010400081E08093D0021092CF0284E111D985E132
:101050000FD98091B9008E7F8093B9008091B9003B
:101060008D7F8093B90088E48093B80085E48093F5
:10107000BC008EEA91E09093CE028093CD028FEA7D
:1010800091E09093CC028093CB0284E88093BA00E5
:101090008CE193E09093D7028093D60281E0A4DAAA
:1010A000C0E0D0E0B0D96B017C01ADD9DC01CB014F
:1010B0008C199D09AE09BF09883E9340A105B10571
:1010C000A0F3209779F30E940000ECCFEE0FFF1FF2
:1010D000881F8BBF0790F691E02D19940F931F93F3
:1010E000CF93DF938230910510F482E090E0E0919D
:1010F0002E03F0912F0320E030E0A0E0B0E0309725
:1011000019F1408151810281138148175907C8F0B4
:101110008417950769F4109731F012960C93129783
:1011200013961C9327C000932E0310932F0322C005
:101130002115310519F04217530718F49A01BD0122
:10114000EF01DF01F801DBCF21153105F9F0281B94
:10115000390B2430310580F48A819B81611571053A
:1011600021F0FB019383828304C090932F0380932B
:101170002E03FE01329644C0FE01E20FF31F81935D
:10118000919322503109398328833AC020912C034E
:1011900030912D03232B41F4209102023091030260
:1011A00030932D0320932C032091000230910102F3
:1011B0002115310541F42DB73EB7409104025091FD
:1011C0000502241B350BE0912C03F0912D03E2174F
:1011D000F307A0F42E1B3F0B2817390778F0AC015A
:1011E0004E5F5F4F2417350748F04E0F5F1F509337
:1011F0002D0340932C038193919302C0E0E0F0E033
:10120000CF01DF91CF911F910F910895CF93DF937D
:10121000009709F481C0FC01329713821282A091D9
:101220002E03B0912F03109781F420813181820F1A
:10123000931F20912C0330912D032817390751F566
:10124000F0932D03E0932C0367C0ED0120E030E024
:10125000CE17DF0740F44A815B819E01411551059D
:10126000F1F0EA01F5CFD383C28340815181840F2D
:10127000951FC817D90759F488819981840F951F44
:101280000296918380838A819B8193838283211537
:10129000310529F4F0932F03E0932E033DC0E901BB
:1012A000FB83EA8349915991C40FD51FEC17FD07C1
:1012B00061F480819181840F951F0296E9019983E1
:1012C0008883828193819B838A83E0E0F0E0129699
:1012D0008D919C911397009719F0FD01DC01F7CFD8
:1012E0008D919C9111979D012E5F3F4F820F931F0F
:1012F00020912C0330912D032817390769F430977A
:1013000029F410922F0310922E0302C0138212822E
:10131000B0932D03A0932C03DF91CF91089581E02A
:1013200090E0F89421C0FB01DC0102C001900D9215
:1013300041505040D8F708956817790768F4FB01C9
:10134000DC01E40FF51FA40FB51F02C002900E923E
:1013500041505040D8F70895E6CFDC0101C06D93AD
:0C13600041505040E0F70895F894FFCF92
:10136C000000300380000000000090028602A10201
:08137C005A027E026A025B02C4
:00000001FF
