:100000000C9405010C942D010C942D010C942D01E0
:100010000C942D010C942D010C942D010C942D01A8
:100020000C942D010C942D010C94560F0C94C80FB8
:100030000C942D010C942D010C942D010C942D0188
:100040000C942D010C948F180C942D010C942D01FF
:100050000C942D010C942D010C942D010C949716E9
:100060000C942D010C942D010C942D010C942D0158
:100070000C942D010C942D010C942D010C942D0148
:100080000C942D010C942D010C942D010C942D0138
:100090000C94E1160C942D010C942D010C942D015F
:1000A0000C942D010C942D010C942D0166026B0211
:1000B00070027A028402CE02CE02CE028E02980232
:1000C000A202AC02B902CE02C102B104D804A1045A
:1000D000EC040E0542053605420542054205690558
:1000E000C104B70EBA0EA90EAD0EB30EDB0EDB0EB9
:1000F000DB0EBE0EC20EC60ECC0ED00EDB0ED60E22
:10010000070605040100080A0B0C0D090000000099
:10011000240027002A002D003000000000002500E8
:1001200028002B002E0031000000000023002600D4
:1001300029002C002F000404040404030405020217
:100140000202040302020202060606060606040470
:100150000202020404040802011040804010204002
:1001600080408008020401804020100201108010AD
:10017000204040200000000200090F00000304019D
:10018000000C000000000000000000000000000063
:10019000000000080B000202020100090400000137
:1001A00002020000052400100105240101010424BD
:1001B000020605240600010705810310004009041A
:1001C0000100020A000000070502024000000705C6
:1001D00083024000000403090412010002EF02013F
:1001E00040412336800001010203014172647569B8
:1001F0006E6F204C4C430041726475696E6F204CE9
:10020000656F6E6172646F00DE1E11241FBECFEF3A
:10021000DAE0DEBFCDBF12E0A0E0B1E0E8E4F3E455
:1002200002C005900D92A832B107D9F725E0A8E2E7
:10023000B2E001C01D92A83AB207E1F711E0C5E0B3
:10024000D1E004C02197FE010E944520C430D107AF
:10025000C9F70E9493190C94A2210C940000E0911C
:100260008402F0918502309709F009940895862F51
:10027000642FE0918202F0918302309711F0A9017E
:10028000099408950895862FE0917A02F0917B02F7
:10029000309711F0BA0109940895862FE0917C02FD
:1002A000F0917D02309711F0BA0109940895862FDC
:1002B000E0917602F0917702309711F0BA0109943B
:1002C0000895862FE0917802F0917902309711F02D
:1002D000BA0109940895862FE0917E02F0917F0281
:1002E000309711F0BA0109940895862FE0918002A9
:1002F000F0918102309711F0BA01099408958E317E
:1003000080F4E82FF0E0DF01A857BB4F9C919130BB
:1003100041F4EE0FFF1FEA55FB4F608371830C948D
:100320002F1208958F929F92AF92BF92CF92DF9239
:10033000EF92FF920F931F93CF93DF93EB018E31D8
:1003400008F038C1082F10E0F801E857FB4F908102
:10035000933009F48CC0943009F02CC1F801EF50AF
:10036000FB4FE080F12C6701CC0CDD1C603282E099
:1003700078070CF042C077FD05C0653B710524F499
:10038000DB0104C0A0E001C0A4EBB0E0F601EE0D7B
:10039000FF1DEF51FC4F818128E830E04901881AA8
:1003A000910887FD9394880C991C880C991C092C42
:1003B000000CAA08BB08828128E532E0281B31091D
:1003C00087FD3395220F331F220F331FA901330FEF
:1003D000660B770B9A01AB01281939094A095B09A9
:1003E0000E94002024EB30E040E050E00E94D61F45
:1003F000820E931EA41EB51E01C04B01F601EE0D28
:10040000FF1DEF51FC4F20812C3008F0CCC0318112
:1004100088E890E0831B910937FD9395880F991F19
:10042000880F991F8816990684F0828148E552E06A
:10043000481B510987FD5395440F551F440F551F05
:10044000C401481559050CF4CA010297880F991F79
:100450004FB7F89430E0F901EE0FFF1F2E0F3F1F4A
:10046000F901E454FC4F928381834FBF9CC0F82E66
:1004700083E0081759F08BEF800F823038F087EF58
:10048000800F833018F08DE008138DC061E08F2D50
:100490000E945E12209711F460E004C0CF3FD105A6
:1004A00029F461E08F2D0E942F127DC0F801EC58D5
:1004B000FE4FE4918E2F90E0FC013197EF30F10573
:1004C00008F06CC0EA5AFF4F0C94452084B5806850
:1004D00084BDC7BD68C084B5806284BDC8BD63C02B
:1004E00080918000806880938000D0938900C093C1
:1004F000880059C080918000806280938000D093F2
:100500008B00C0938A004FC08091800088608093E8
:100510008000D0938D00C0938C0045C080919000E6
:10052000806880939000D0939900C09398003BC05E
:1005300080919000806280939000D0939B00C09344
:100540009A0031C080919000886080939000D09391
:100550009D00C0939C0027C08091C000806880935C
:10056000C0008091C0008F7B8093C000C093CF00FB
:100570001AC08091C00080628093C000C093D000F8
:1005800012C08091C20088608093C2008091C20036
:100590008B7F8093C200C093D20005C0C038D105C4
:1005A0000CF07FCF79CF000F111FF801EA55FB4FF8
:1005B000D183C083DF91CF911F910F91FF90EF9076
:1005C000DF90CF90BF90AF909F908F90089500974D
:1005D00021F0805C9F4F0C9485130895EF92FF9259
:1005E0000F931F93CF93DF93D82F8B01C42FF22E3D
:1005F0006F3F8FEF7807F9F081E08093F402D0939A
:1006000016031092F5021092170388E693E00E94F9
:10061000FD158F2D0E94C1148091C0029091C102DE
:100620008230910550F0880F991F880F991F059708
:100630000197F1F702C000E010E08091F302811110
:10064000FCCF9C2FC13208F090E281E08093F3024E
:100650008093F2022FEF2093F1021092F002290F03
:100660002093EF028093CE028091CE022D2F220F95
:10067000822B8093CE028091CD02813061F4109262
:10068000CD028091CE028093BB008091BC0083FD9F
:10069000F8CF85EC01C085EE8093BC008091F30219
:1006A0008130E1F38091F002891710F49091F0020B
:1006B000EFECF2E0A5E3B5E080E0891721F02191AD
:1006C0002D938F5FFACF1092560580935505EC2E2F
:1006D000F12C90E0E816F9061CF480E491E005C0E6
:1006E0008E159F0524F48DE591E00E94A814D09307
:1006F00034020093350204E312E0C80184539240AF
:100700008E159F057CF40F5F1F4F909155058091CA
:100710005605981739F088E693E00E94B415F80161
:100720008183EBCFCE5F6C2F70E044E352E087E72C
:10073000DF91CF911F910F91FF90EF900C945B147C
:10074000A82FB0E0AF50BB4F9C91292F30E0F901AA
:10075000EE0FFF1F2E0F3F1FF901EF51FC4FE081FD
:10076000F0E09F01220F331FE20FF31FE454FC4F10
:1007700080818F7B80838091EF04981306C099233A
:1007800079F091509093EF040BC0882349F0E091E9
:10079000F004EF5FE093F004F0E0E95DFD4F90833B
:1007A0008FEF8C930895DB019091EF049C30A8F5B6
:1007B0003091F004682F70E0332369F0E32FF0E00C
:1007C000E95DFD4F8081FB01EF50FB4F808331508D
:1007D0003093F00407C0FB01EF50FB4F90839F5F05
:1007E0009093EF04FB01EF50FB4F808190E09C0160
:1007F000220F331F820F931F1A161B0634F4141690
:1008000015061CF49A01AD0104C020E639E040E26F
:1008100052E08F519C4F0C940F1889E791E00C9493
:10082000A814AF92BF92CF92DF92EF92FF920F93F4
:100830001F93CF93DF93C82ED12C86010B5F1B4FE4
:10084000F801ED57FF4F90819F3709F442C17B01BA
:10085000C82F963069F480911305882349F06630DB
:10086000710509F432C1109213058FEF80930801CE
:10087000CE3100F584E0E816F104E1F0F601EF5026
:10088000FB4F80818C30B0F490E0FC01EE0FFF1F35
:100890008E0F9F1FFC01EF51FC4F808190E0FC0107
:1008A000EE0FFF1F8E0F9F1FFC01E454FC4F808151
:1008B00086FDF6C0DEEEDC0FDC3060F461E070E057
:1008C00082E0E816F10411F060E070E08D2F0E94E4
:1008D000F10C02C0CE3118F5EC2FE695E695E695C1
:1008E0002C2F2770F0E0EA57FD4FE114F10421F0BE
:1008F0008BE0E816F10449F481E090E001C0880F34
:100900002A95EAF79081892B09C081E090E001C027
:10091000880F2A95EAF78095908189238083560174
:10092000AA0CBB1CF501EA55FB4F118210828CE02A
:10093000E816F10408F0A6C0F701EB59FF4F0C943C
:100940004520DC3008F0C5C060E08C2F0E945E12AC
:10095000F801ED57FF4F80818F3709F4BAC082E06C
:100960008FC0CE3108F0B5C060E08C2F0E945E12BF
:10097000F801ED57FF4F80818F3709F4AAC010822C
:10098000A8C0CE3108F0A5C062E08C2F0E945E1294
:10099000F801ED57FF4F80818F3711F08BE0808396
:1009A000F501EA55FB4F81E090E09183808391C08F
:1009B000CE3108F08EC060E08C2F0E942F1261E0D3
:1009C0008C2F0E945E12F801ED57FF4F80818F3708
:1009D00009F47FC081E054C0C33059F08BEF8C0F15
:1009E000823038F087EF8C0F833018F0CD3009F06B
:1009F00070C061E08C2F0E945E1261E08C2F0E941B
:100A00005E1260E08C2F0E942F12F801ED57FF4F0D
:100A100080818F3709F45DC083E032C0CE3108F0A9
:100A200058C0F801ED57FF4F80818F3711F084E0F7
:100A30008083F601EF50FB4F80818F3FA9F190E05A
:100A4000FC01EE0FFF1F8E0F9F1FFC01EF51FC4FAB
:100A5000808190E0FC01EE0FFF1F8E0F9F1FFC01B5
:100A6000E454FC4F808186FD34C01EC0C250C230A9
:100A700080F5F801ED57FF4F80818F3751F186E007
:100A8000808327C08DE891E0DF91CF911F910F9176
:100A9000FF90EF90DF90CF90BF90AF900C94A81490
:100AA0008C2F0E94A00306CF4FEF5FEF6FEF7FEF19
:100AB0008C2FDF91CF911F910F91FF90EF90DF90DE
:100AC000CF90BF90AF900C94D303CE3108F4D6CE24
:100AD000F1CEDF91CF911F910F91FF90EF90DF90BA
:100AE000CF90BF90AF900895DC0170E0FB01EB5A0E
:100AF000FE4FE4911896EC9318976A5C7E4FFB01C9
:100B00008491E82FF0E0EE0FFF1FE65EFE4F859127
:100B1000949115969C938E931497FB016491E62F04
:100B2000F0E0EE0FFF1FE45FFE4F85919491179662
:100B30009C938E93169708953F924F925F926F9277
:100B40007F928F929F92AF92BF92CF92DF92EF925D
:100B5000FF920F931F93CF93DF935C016901DA013A
:100B60003C90232B19F4CC24CA94DC2C7A012A0162
:100B7000460E571EC0E0D0E000E010E087E0682E8F
:100B8000712CE414F50409F443C00C151D0508F09C
:100B900067C04701F50180819181D7016D917D0189
:100BA0000C2E01C0660F0A94EAF763296F77DC0107
:100BB000ED91FC910190F081E02D09950F5F1F4FA1
:100BC000F401608170E0C3018C1B9D0B02C0759520
:100BD00067958A95E2F7362E2196C730D10588F2BF
:100BE000C016D10699F0D5018D919C91632D6F7738
:100BF000DC01ED91FC910190F081E02D09950F5FF2
:100C00001F4F331C3324331C2797E7CF8601B9CFFE
:100C1000209731F10C151D0518F5F50180819181A2
:100C200061E070E001C0660FCA95EAF76150632188
:100C3000DC01ED91FC910190F081E02DDF91CF91ED
:100C40001F910F91FF90EF90DF90CF90BF90AF90EA
:100C50009F908F907F906F905F904F903F900994FE
:100C6000DF91CF911F910F91FF90EF90DF90CF9088
:100C7000BF90AF909F908F907F906F905F904F90BC
:100C80003F900895FF920F931F93CF93DF9300D06F
:100C9000CDB7DEB7082F10E0F801EA57FD4F90817D
:100CA000F62EF922015F1A4F411104C0F80190811C
:100CB000F91611F12F2D30E03A832983A0914504D4
:100CC000B09146041097B1F0682F6F706069ED9194
:100CD000FC9111970190F081E02DCD01099522E062
:100CE00030E0AE014F5F5F4F62E070E085E494E07A
:100CF0000E949C05F801F0820F900F90DF91CF9138
:100D00001F910F91FF900895DF92EF92FF920F9342
:100D10001F93CF93DF93FC01E058FF4FD080DD207D
:100D200009F45DC0EC01C05CDF4FA881B981109768
:100D300009F455C0FC01EF57FF4F00811181F80104
:100D4000F180E080ED91FC9111970190F081E02D10
:100D500060EFCD01099588819981DC01ED91FC91CD
:100D60000190F081E02D69E7099588819981DC0186
:100D7000ED91FC910190F081E02D6E2D0995888117
:100D80009981DC01ED91FC910190F081E02D6F2DB6
:100D900009957801B2E0EB0EF11C0D0D111DE01666
:100DA000F10661F020E030E0A70161E070E0CE01E3
:100DB0000E949C05EFEFEE1AFE0AF1CF888199811F
:100DC000DC01ED91FC910190F081E02D67EFDF9166
:100DD000CF911F910F91FF90EF90DF900994DF91D9
:100DE000CF911F910F91FF90EF90DF9008950097A2
:100DF00011F00C94840608957F928F929F92AF9287
:100E0000BF92CF92DF92EF92FF920F931F93CF93F7
:100E1000DF93EA018F3609F4C4C1F62E803778F4E7
:100E2000893609F48DC220F4813509F49BC24EC580
:100E30008B3609F4E0C18D3609F441C247C58637C7
:100E400061F020F4803709F44BC140C5883709F4BC
:100E5000F2C08A3709F490C139C52981922F98715F
:100E600025FF03C086EF91E062C0888131E026FB58
:100E7000222720F92327983069F160F4911126C5C3
:100E80003093F402809316031092F5021092170328
:100E900012E007C0903109F444C0983109F47EC0D3
:100EA00015C51F1578F4FE01E10FF11D61816795ED
:100EB000662767958081680F88E693E00E94FD159C
:100EC0001E5FEFCF81E00E94C11483E191E00197A2
:100ED000F1F7FCC44B816A8136E0F3120DC070E07B
:100EE00090E8499F600D711D11244D81479544275D
:100EF00047959C81490F06C0479544274795460F63
:100F00006FEF7FEFDF91CF911F910F91FF90EF90E7
:100F1000DF90CF90BF90AF909F908F907F900C9478
:100F2000EE02E0910801E7308CF086E192E0DF917B
:100F3000CF911F910F91FF90EF90DF90CF90BF90D6
:100F4000AF909F908F907F900C94A8149B813A81D2
:100F5000F6E06F130EC0632F70E030E8939F600DD2
:100F6000711D11249D819795992797954C81940F18
:100F700006C0979599279795930F6FEF7FEFEF5FD7
:100F8000E093080145E0E402F0011124EE56FD4F24
:100F90008083728361839383248398C420910801A2
:100FA00012163CF490E0622F022E000C770B35E015
:100FB0000FC08FEF8093080189C4349FF001359FE3
:100FC000F00D1124EE56FD4F4081841739F09F5FDC
:100FD000492F50E06417750784F790E085E022C040
:100FE0009830F8F4FA0131968E9FD0018F9FB00DA2
:100FF0001124AE56BD4F3C91849FF001859FF00DAA
:101000001124EE56FD4F308311964D915C9112974D
:101010005283418313963C911397338314963C91EA
:1010200034839F5F492F50E064177507CCF6215039
:10103000209308014BC42981888190E0E0E82E9F2D
:10104000800D911D1124009721F09093C10280938F
:10105000C00280911305811139C4C0E08EEF8C0F5E
:10106000823028F466E070E08C2F0E941104CF5F7C
:10107000CE31A1F781E080931305109256051092AE
:1010800055051092F502109217031092F302809307
:10109000F2021092CD0261E082E00E942F1261E024
:1010A00083E00E942F128091B9008E7F8093B90057
:1010B0008091B9008D7F8093B90088E48093B80057
:1010C00085E48093BC0082EA95E190935805809373
:1010D000570583EA95E190935A0580935905F6C325
:1010E000F4E0F61708F0F2C318811E3108F0EEC3E1
:1010F0000981EA80FB80CC81E12FF0E0EF50FB4FCB
:1011000080818C30B0F490E0FC01EE0FFF1F8E0F59
:101110009F1FFC01EF51FC4F808190E0FC01EE0F1E
:10112000FF1F8E0F9F1FFC01E454FC4F808186FD42
:10113000B2C34F2D50E020E8C29F400D511D112435
:10114000602F70E030E8E39E600D711D1124812F47
:101150000E94D30364E070E0812FDF91CF911F9153
:101160000F91FF90EF90DF90CF90BF90AF909F9046
:101170008F907F900C94110441E0461708F0A6C3AD
:101180002981888190E0E0E82E9F800D911D112437
:10119000009711F481E090E090930A018093090197
:1011A00095C3623008F492C3898190E0623091F077
:1011B0002A81F0E82F9F90011124822B932B63301A
:1011C00049F02B8130E030E4239F302D2227112479
:1011D000822B932BBC018881DF91CF911F910F91BE
:1011E000FF90EF90DF90CF90BF90AF909F908F9047
:1011F0007F900C94920180EF0E94B4148CE60E94C0
:10120000B414C0E080E00E94B41481E00E94B414E1
:101210008BE00E94B41481E00E94B41481E00E942B
:10122000B41481E00E94B41481E50E94B41481E0FA
:101230000E94B4148EEE8C0F8C3038F482E00E9441
:10124000B4148AE00E94B41409C0C33039F483E0B6
:101250000E94B41488E00E94B4140AC08BEF8C0F73
:101260008230A8F387EF8C0F833088F3CD3079F389
:1012700084E00E94B4148EE00E94B4148EEF8C0FB0
:10128000823030F486E00E94B41481E00E94B414ED
:101290008FE70E94B414CF5FCE3109F0B3CF87EF50
:1012A000DF91CF911F910F91FF90EF90DF90CF9042
:1012B000BF90AF909F908F907F900C94B414662352
:1012C00009F404C3C88180EF0E94B4148EE60E9422
:1012D000B4148C2F0E94B414CE3108F7D0E0FE0174
:1012E000E857FB4F80810E94B414CC0FDD1F8E01A4
:1012F0000A551B4FF80180818F770E94B414F801C2
:10130000808191819C012078232B39F0880F892FCF
:10131000881F990B8F770E94B414CA55DB4F8881C0
:1013200099819C012227307C232B09F4B8CF990F97
:10133000880B990F982F881F8F770E94B414AFCF16
:1013400080EF0E94B4148AE60E94B414CEEECC3032
:1013500010F08FE701C08C2F0E94B414CF5FCC3007
:10136000B1F79DCF662309F4B1C29881892F8F70A0
:10137000833009F4D1C030F4813009F422C18230C5
:1013800041F0A4C2843009F469C0853009F4D5C1A4
:101390009DC28091C402811199C28091C3028111C2
:1013A00095C281E08093C40240E019E080912D0550
:1013B000481708F050C0842F90E0BC016B5E7A4F54
:1013C000FB012081222309F442C0E0913105F09114
:1013D0003205189FE001199FD00D1124CC58DC4F25
:1013E000AE81BF818C919885982B9C93AC81BD81F7
:1013F0005885888199819C01220F331F280F391F3E
:101400008A819B81EC01CC0FDD1F8C0F9D1FE80FA3
:10141000F91F8C91952F90959823852B5FB7F894A1
:101420002E0F3F1F2E173F0781F0C191D8E08C93FC
:1014300000C0C7FF9C93CC0F00C000C000C008F4E0
:101440009C9300C0DA9599F7EDCF5FBF7894FB01CC
:1014500010824F5FABCF1092C40238C28091C3029A
:10146000811134C28B8190E0A0E0B0E0AC01BD01FD
:101470001EE0440F551F661F771F1A95D1F79C81F8
:10148000892F90E0A0E0B0E005E1880F991FAA1F26
:10149000BB1F0A95D1F7840F951FA61FB71F29817F
:1014A000820F911DA11DB11DCA80D12CE12CF12C00
:1014B00027E0CC0CDD1CEE1CFF1C2A95D1F7C80ED2
:1014C000D91EEA1EFB1EC114D104E104F10419F077
:1014D000C0E0D0E012C04091330550913405CA01FC
:1014E000880F991F480F591F60E070E08091310507
:1014F000909132050E948C21B8C180913305909162
:101500003405C817D90708F0B0C1B701A601CE014C
:101510000E9450192196F1CF8091C3028111D6C14A
:101520008A81098110E0F0E88F9F000D111D1124C0
:101530008D8190E0A0E0B0E0AC01BD01EEE0440F91
:10154000551F661F771FEA95D1F79E81892F90E07E
:10155000A0E0B0E0F5E1880F991FAA1FBB1FFA9524
:10156000D1F7840F951FA61FB71F2B81820F911DE6
:10157000A11DB11D4C8150E060E070E0C7E0440F58
:10158000551F661F771FCA95D1F7480F591F6A1F4D
:101590007B1FC8010E94501940912D05ADE1B5E0B7
:1015A00080E090E0841708F091C1FC012D913D91FD
:1015B000019602171307B0F7EB5EFA4F81E08083C4
:1015C00085C1913009F082C122E0261708F07EC162
:1015D0009090C2020E948119911013C06BEAF69E8E
:1015E000B12C1124B6944DE1C42E45E0D42E54E71D
:1015F000E52E53E0F52EA12C8824839462E0762E0C
:1016000058C034E7C32E33E0D32E10E0612FC6015B
:101610000E9474051F5F39E0C30ED11C1830B1F76A
:10162000DDCF898190E025E0959587952A95E1F7B2
:101630008130910509F445C08230910509F446C016
:10164000892B31F410922F058092300570922E056F
:101650008B810A8110E040E8849F000D111D112448
:10166000F70111830083AA20C1F1F601329780812E
:1016700091819801280F391FF601219331936F0151
:10168000F701938382838091330590913405080F8D
:10169000191F109334050093330580912D058F5F3A
:1016A00080932D05A394F9E0EF0EF11C2396BA1454
:1016B000B9F09110B6CF69816F71C7010E947405AE
:1016C000B0CF1092300580922F05C0CF10922E051A
:1016D0008092300570922F05BBCF80E090E0C9CF9B
:1016E0008091310590913205009731F00E94E320FE
:1016F00010923405109233050115110509F4E6C066
:10170000E801CC0FDD1FC00FD11FCE010E944B207E
:101710009093320580933105009751F0AE0160E05F
:1017200070E00E948C211093340500933305CEC0E5
:101730001092340510923305C9C08981982F9F718A
:1017400009F493C0282F2072C22EC92FCC0FC90FC5
:1017500021E02093C302D0E0E92EF12C382F307421
:10176000D32E86FF28C0CE010E944B208C0100970B
:1017700029F0AE0160E070E00E948C21CC2039F0AD
:1017800060913305709134056E197F0902C060E0E5
:1017900070E0CB01880F991F680F791F8091310588
:1017A00090913205680F791FAE01C8010E94712126
:1017B000C11075C019C0CC20B9F08091310590914D
:1017C000320540913305509134054E195F099A0155
:1017D000220F331F420F531FBC018C0F9D1F0E940D
:1017E0007A2180E090E02FC0809131059091320500
:1017F00040913305509134054E195F099A01220F2B
:10180000331F420F531FBC016C0F7D1F0E947A21B2
:1018100080913305909134058E199F09DD2099F050
:101820009C01220F331F820F931F209131053091AD
:101830003205AE01B801820F931F0E947121C801C9
:101840000E94E32010C09C01220F331F820F931FC0
:101850002091310530913205AE0160E070E0820FD9
:10186000931F0E948C211092C30240912D0550E0DD
:1018700061E070E085E195E0DF91CF911F910F91DC
:10188000FF90EF90DF90CF90BF90AF909F908F90A0
:101890007F900C948C21812F0E94A0034ACC8091D0
:1018A00031059091320540913305509134054E1920
:1018B0005F099A01220F331F420F531FBC018C0F87
:1018C0009D1F0E947A2180E090E0AACFDF91CF9106
:1018D0001F910F91FF90EF90DF90CF90BF90AF904E
:1018E0009F908F907F9008950F931F93CF93DF93D6
:1018F000843008F071C0282F30E0F901E657FD4F21
:101900006083672B09F468C0082FF901EA57FD4F7F
:101910001081D22FDD0FDD0FDD0F10FF4DC08D2F99
:101920000E940612892B09F447C0C1E011FF07C0CD
:1019300081E08D0F0E940612892B09F03FC012FF33
:1019400006C082E08D0F0E940612892BC9F513FF95
:1019500006C083E08D0F0E940612892B99F514FFB3
:1019600006C084E08D0F0E940612892B69F515FFD1
:1019700006C085E08D0F0E940612892B39F5D831FB
:1019800091F016FF06C086E08D0F0E940612892B8B
:10199000F9F4D73141F017FF06C087E08D0F0E94A0
:1019A0000612892BB9F441E06C2F802FDF91CF9183
:1019B0001F910F910C944206C0E0B8CFC260BFCF18
:1019C000C460C5CFC860CBCFC061D1CFC062D7CF14
:1019D000C064DFCFC068E7CFDF91CF911F910F9137
:1019E0000895CF938C3080F54091BA025091BB029C
:1019F00021E030E0672B81F4B90102C0660F771F48
:101A00008A95E2F7CB018095909584239523909356
:101A1000BB028093BA0218C0082E02C0220F331FE7
:101A20000A94E2F7242B352B3093BB022093BA02A1
:101A300090911405911108C0C82F0E949A12BC0100
:101A40008C2FCF910C94F713CF9108958F929F9282
:101A5000AF92BF92CF92DF92EF92FF920F931F93BC
:101A6000CF93DF93843008F096C0982F990F990F89
:101A7000990F58E0C52EC90E9EE19C1510F44EE159
:101A8000C42E8B01C82FCC0FCC0FCC0FDC2ED0E096
:101A9000992493945B01BB24DC1410F54D2D50E088
:101AA000FA01E857FB4F20812230B8F4892D90E0ED
:101AB0008A219B2188248394009709F4812C7A0140
:101AC000EE0CFF1C213009F056C0D929F701EA5568
:101AD000FB4F882D90E091838083990CD394DCCFC9
:101AE000D0FF05C0602F61708C2F0E942F12D1FF94
:101AF00006C0602F627081E08C0F0E942F12D2FF0F
:101B000006C0602F647082E08C0F0E942F12D3FFFA
:101B100006C0602F687083E08C0F0E942F12D4FFE4
:101B200006C0602F607184E08C0F0E942F12D5FFD9
:101B300006C0602F607285E08C0F0E942F12D6FFC6
:101B400006C0602F607486E08C0F0E942F12D7FFB2
:101B500022C0602F607887E08C0FDF91CF911F91BA
:101B60000F91FF90EF90DF90CF90BF90AF909F903C
:101B70008F900C942F12892B09F4A8CFF701EA5506
:101B8000FB4F80819181019709F4A0CF62E08D2DF8
:101B90000E945E129BCFDF91CF911F910F91FF901A
:101BA000EF90DF90CF90BF90AF909F908F9008956F
:101BB0004091C7025091C8022091C5023091C602DF
:101BC00042175307B4F49091E8009570E1F39091B7
:101BD000E80092FD19C08093F1008091C7029091B6
:101BE000C80201968F739927892B19F48EEF809381
:101BF000E8008091C7029091C80201969093C802B4
:101C00008093C70281E0089580E00895DF92EF920B
:101C1000FF920F931F93CF93DF93D82E8A017B01FE
:101C2000E40EF51EEB01CE15DF0571F0D7FE03C003
:101C3000FE01849101C088810E94D80D21968111F6
:101C4000F2CF8FEF9FEF01C0C801DF91CF911F91BD
:101C50000F91FF90EF90DF900895615030F0209148
:101C6000F100FC0120830196F8CF289884E6809348
:101C7000CB020895CF92DF92EF92FF920F931F93C2
:101C8000CF93DF936C017A018B01C0E0D0E0CE15D9
:101C9000DF0581F0D8016D918D01D601ED91FC91A8
:101CA0000190F081E02DC6010995892B11F0219654
:101CB000EECF7E01C701DF91CF911F910F91FF9071
:101CC000EF90DF90CF900895CF93DF931F92CDB721
:101CD000DEB76983DC01ED91FC910280F381E02D98
:101CE00041E050E0BE016F5F7F4F09950F90DF919B
:101CF000CF91089583E08093E9008091F2008823DA
:101D000019F08AE38093E8000895FC0184859585A5
:101D100097FD0BC09FB7F89482E08093E900809113
:101D2000F2009FBF90E0019608959FB7F89482E07B
:101D30008093E9008091F2009FBF90E0089590E0C9
:101D4000FC013197EF30F105B0F5EF58FF4F0C94DF
:101D50004520809180008F7703C0809180008F7D27
:101D600080938000089580918000877FF9CF84B5AB
:101D70008F7702C084B58F7D84BD089580919000D7
:101D80008F7707C0809190008F7D03C08091900075
:101D9000877F8093900008958091C0008F7703C063
:101DA0008091C0008F7D8093C00008958091C20013
:101DB000877F8093C20008950E946C210F931F9328
:101DC000CF93DF931F92CDB7DEB782E0898342E4E1
:101DD00050E063E971E080E80E94060E0E945C1505
:101DE000DC0112960D911C9113970115110589F0D4
:101DF000D801ED91FC910280F381E02DBE016F5F6F
:101E00007F4FC801099597FD04C0F8010085118531
:101E1000ECCF89810F90DF91CF911F910F910895A1
:101E20000E944B1590E008950F931F93CF93DF937B
:101E30001F92CDB7DEB78C01FC018485958597FF95
:101E40000EC0CE0101960E941D15019719F48981DB
:101E500090E002C08FEF9FEFF80195878487F8012B
:101E6000848595850F90DF91CF911F910F910895F3
:101E7000CF93DF931F92CDB7DEB7FC0184859585A4
:101E800097FD05C02FEF3FEF358724870BC0CE01AC
:101E900001960E941D15019719F4898190E002C0F6
:101EA0008FEF9FEF0F90DF91CF9108951F920F92C8
:101EB0000FB60F9211248F939F938091E100909120
:101EC000E100937F9093E10083FF0FC01092E9003F
:101ED00091E09093EB001092EC0092E39093ED0070
:101EE0001092CC0298E09093F00082FF20C093E023
:101EF0009093E9009091F200992319F09AE390935E
:101F0000E8009091CA02992339F09091CA02915049
:101F10009093CA02992389F19091CB02992339F0C9
:101F20009091CB0291509093CB02992341F184FF81
:101F300010C08091E2008E7E81608093E2008091EB
:101F4000E1008F7E8093E100809174028E7E80613B
:101F500011C080FF16C08091E2008E7E8061809368
:101F6000E2008091E1008E7E8093E1008091740216
:101F70008E7E81608093740204C05D9ACDCF289AD2
:101F8000D6CF9F918F910F900FBE0F901F901895F5
:101F90001F920F920FB60F921124CF92DF92EF9201
:101FA000FF920F931F932F933F934F935F936F93E2
:101FB0007F938F939F93AF93BF93EF93FF93CF93B1
:101FC000DF93CDB7DEB76C97DEBFCDBF1092E900CF
:101FD0008091E80083FFFBC168E0CE0145960E9436
:101FE0002D0E82EF8093E8008D8987FF05C09091C8
:101FF000E80090FFFCCF03C09EEF9093E800982F7D
:10200000907609F0C6C09E894F89588D2F89F88C2B
:1020100091110CC0803829F4809175028093F100F1
:1020200002C01092F1001092F10045C1913051F4BC
:10203000811141C14130510509F03DC180917502C6
:102040008D7F0BC0933061F4811135C14130510552
:1020500009F031C1809175028260809375022BC1B5
:10206000953049F48091E80080FFFCCF822F806892
:102070008093E30020C1963009F05EC00B8D1C8D6B
:1020800022E01092E9001092C8021092C702F212E8
:1020900032C01092C6021092C5020E94DE0E99E074
:1020A000BE016F5F7F4FDB01E92F1D92EA95E9F7D3
:1020B0009983FA8291E09E8390EA98879AEF9987B4
:1020C0002091C7023091C802275F3F4F3C832B838A
:1020D0008D831092E9001092C8021092C7021093EB
:1020E000C6020093C50249E050E080E00E94060E5F
:1020F0000E94DE0EE0C01093C6020093C5020E944B
:102100005C15DC0112960D911C91139701151105B8
:1021100009F4BBC0D801ED91FC910480F581E02D5C
:10212000BE016B5E7F4FC8010995009709F0C7C0DB
:10213000F80100851185EACF973009F445C1983040
:1021400021F481E08093F100B6C0993009F0B3C06A
:10215000837009F039C1E6E1F1E081E031E096E316
:102160002081211109C08EE78093EA001092EA00D5
:102170008F898093CC029FC08093E9003093EB005D
:1021800021912093EC009093ED008F5F873041F711
:10219000EACF8B8D9C8D1092E9001092C8021092AC
:1021A000C7029093C6028093C502898D811153C0E6
:1021B0008E899D89913A49F4813209F005C147E041
:1021C00050E060E071E080E0BBC0913209F0FCC0FB
:1021D000833269F48F89988DA0E0B0E080930B0181
:1021E00090930C01A0930D01B0930E0164C0803256
:1021F00069F48091E80082FFFCCF67E080E091E025
:102200000E942D0E8BEF8093E80055C0823209F0BA
:1022100052C08F8980930701EEEFFFE7859194917B
:102220008B3F9C4D19F0E0E0F8E002C0EEEFFAE0E1
:102230008091000190910101A0910201B0910301F0
:10224000803B9440A105B10509F09EC08091070133
:1022500080FF79C099C00E945C15FC010281138146
:102260000115110509F4B0C0D801ED91FC91019060
:10227000F081E02DBE016B5E7F4FC8010995811191
:102280001AC0F80100851185EBCFF1E0FF1609F4C3
:102290004EC0F3E0FF1298C08F89882309F44AC02A
:1022A000823089F440E860E187EF91E00E94A91E46
:1022B000882309F489C08EEF8093E80088C018163F
:1022C0001906CCF381C0813029F440E86BE08BEE35
:1022D00091E0ECCF833009F077C00E945C15DC01FF
:1022E0001296ED90FC9013978E010F5F1F4F6801BF
:1022F000E114F10479F0D701ED91FC910680F781AA
:10230000E02DB801C7010995080F111DF701E08400
:10231000F184EECFD8011C92F60101900020E9F77C
:102320003197BF016C197D0940E0C601BFCF69ED4F
:1023300071E002C065ED71E0FB01449150E080E87E
:102340000E94060EB8CFEE3F2AE0F20751F08081DE
:1023500091818737A7E79A0721F09093FF0A80932E
:10236000FE0A87E797E791838083809160008093DE
:10237000C9029BE088E10FB6F894A89580936000AD
:102380000FBE9093600097CF8081918187379747E8
:1023900009F091CFA89580916000886180936000DA
:1023A0008091C90280936000EE3FBAE0FB0739F0EC
:1023B0008091FE0A9091FF0A918380837CCF1092D6
:1023C000FF0A1092FE0A77CF81E28093EB006C96B1
:1023D0000FB6F894DEBF0FBECDBFDF91CF91FF9156
:1023E000EF91BF91AF919F918F917F916F915F918D
:1023F0004F913F912F911F910F91FF90EF90DF90A0
:10240000CF900F900FBE0F901F901895CF93DF9332
:10241000282F30E0F901EC58FE4F8491F901EB5A76
:10242000FE4FD491F901EA5CFE4FC491CC2391F0A8
:1024300081110E949F0EEC2FF0E0EE0FFF1FE85D70
:10244000FE4FA591B491EC91ED2381E090E021F451
:1024500080E002C080E090E0DF91CF9108951F936B
:10246000CF93DF93282F30E0F901EC58FE4F849191
:10247000F901EB5AFE4FD491F901EA5CFE4FC49189
:10248000CC23C1F0162F81110E949F0EEC2FF0E09B
:10249000EE0FFF1FE65EFE4FA591B4919FB7F89433
:1024A000111104C08C91D095D82302C0EC91DE2B81
:1024B000DC939FBFDF91CF911F910895CF93DF935E
:1024C00090E0FC01EB5AFE4F2491FC01EA5CFE4FC8
:1024D0008491882361F190E0880F991FFC01E45FEB
:1024E000FE4FC591D491FC01E65EFE4FA591B491DB
:1024F000611109C09FB7F894888120958223888351
:10250000EC912E230BC0623061F49FB7F894888160
:10251000322F309583238883EC912E2B2C939FBFF1
:1025200006C08FB7F894E8812E2B28838FBFDF91E8
:10253000CF910895823108F08251E82FF0E0E05009
:10254000FF4FE49180917B00E3FB222720F930E0EC
:1025500095E0220F331F9A95E1F78F7D282B20936A
:102560007B00E770E064E0937C0080917A008064F7
:1025700080937A0080917A0086FDFCCF809178006C
:102580002091790090E0922B08958F929F92AF92C4
:10259000BF92CF92DF92EF92FF926B017C010E947B
:1025A00072164B015C01C114D104E104F104F1F095
:1025B0000E947216DC01CB0188199909AA09BB098E
:1025C000883E9340A105B10570F321E0C21AD108FD
:1025D000E108F10888EE880E83E0981EA11CB11C6A
:1025E000C114D104E104F10419F7DDCFFF90EF909D
:1025F000DF90CF90BF90AF909F908F9008958F9273
:102600009F92AF92BF92CF92DF92EF92FF920F9381
:102610001F93CF93DF936C017B018A0180910701A7
:10262000882309F45CC08091CC02882309F457C048
:102630008091740280FF05C08091E00082608093E9
:10264000E000E801B12C8AEFA82E93E0892E2AE35E
:10265000922E209711F4BB20D9F10E944B158111C5
:102660000AC0AA94AA20D9F161E070E080E090E06D
:102670000E94C512EECF282F30E0C217D3070CF40A
:102680008C2F9FB7F8948092E9002091E80025FFF5
:102690001DC0282F30E0C21BD30BF701815020F062
:1026A00041914093F100FACFE20EF31EBB2019F0E6
:1026B0009092E8000AC08091E80085FD07C09092E2
:1026C000E800BB24B394209709F0B12C9FBFC1CF81
:1026D0005D9884E68093CA021016110644F081E0EA
:1026E00090E0F6019383828380E090E001C0C8010E
:1026F000DF91CF911F910F91FF90EF90DF90CF90DE
:10270000BF90AF909F908F900895CF93DF93FC017F
:10271000A081B181109701F1EC01ED91FC9111972D
:102720000190F081E02D69EFCD01099588819981B3
:10273000DC01ED91FC910190F081E02D62E00995C2
:1027400088819981DC01ED91FC910190F081E02D6F
:1027500065E0DF91CF910994DF91CF9108951F93A8
:10276000CF93DF93182FEB0180914A0490914B0493
:1027700068177907A8F0E0917704F091780481E078
:102780003097C1F080934704809163049091640472
:10279000099580914A0490914B04C817D90748F4D1
:1027A0008091480490914904C80FD91F188380E094
:1027B00001C081E0DF91CF911F910895AC01FB0131
:1027C00080E090E09C01220F331F2417350770F43E
:1027D000DB012C91208311963C9137953327379557
:1027E000232B219301966E5F7F4FECCF08951F93AB
:1027F000CF93DF9300D0CDB7DEB7182F7A836983EC
:102800008091450490914604009709F44EC0DC0184
:10281000ED91FC911031A8F46115704490F4612F92
:10282000606E0190F081E02D099522E030E0AE016C
:102830004F5F5F4F62E070E085E494E00E949C058A
:1028400034C00190F081E02D60EF0995809145043E
:1028500090914604DC01ED91FC910190F081E02D16
:102860006FE609958091450490914604DC01ED9155
:10287000FC910190F081E02D612F099522E030E07C
:10288000AE014F5F5F4F62E070E085E494E00E942C
:102890009C058091450490914604DC01ED91FC91EA
:1028A0000190F081E02D67EF09950F900F90DF9177
:1028B000CF911F910895EF92FF920F931F93CF93A3
:1028C000DF93C82F80914504909146040097C9F189
:1028D0007A018B01DC01ED91FC910190F081E02DFA
:1028E00060EF09958091450490914604DC01ED91DB
:1028F000FC910190F081E02D6C2F0995E7010E0D00
:102900001F1DC017D10759F020E030E0AE0161E093
:1029100070E085E494E00E949C052196F2CF8091BE
:10292000450490914604DC01ED91FC910190F08109
:10293000E02D67EFDF91CF911F910F91FF90EF9006
:102940000994DF91CF911F910F91FF90EF9008951F
:10295000FC0101900020E9F73197BF01681B790B5A
:10296000AC0181E70C945B14A0918304B0918404C2
:10297000ED91FC9111970190F081E02D682FCD0130
:102980000994282F30911703313208F04AC0809102
:10299000F3028111FCCF9091160342E04093F302C1
:1029A0002093F2022FEF2093F1021092F002309365
:1029B000EF02E6EFF2E0AFECB2E020E0321721F0F8
:1029C00041914D932F5FFACF1092CE022091CE020B
:1029D000990F922B9093CE029091CD02913061F499
:1029E0001092CD029091CE029093BB009091BC00CA
:1029F00093FDF8CF95EC01C095EE9093BC009091BB
:102A0000F3029230E1F39091F1029F3F79F08091CF
:102A1000F102803241F08091F102803331F084E0A4
:102A200005C081E003C082E001C083E01092F5029E
:102A3000109217031092F40208952091CC022111F4
:102A400003C08FEF9FEF08955FB7F89422E02093C3
:102A5000E9002091F20030E01216130614F421E090
:102A600030E0422FFC0184E6415038F028988093F2
:102A7000CB029091F1009193F7CF2115310521F010
:102A80008091F200882319F05FBFC90108958BE699
:102A90008093E800F9CF2FB7F89483E08093E900A2
:102AA0009091E800892F807295FF04C09091F20008
:102AB00080E4891B2FBF08958091E70481110DC028
:102AC00082E08093E30484E08093E4041092E604BF
:102AD0001092E50481E08093E70483EE94E008958A
:102AE00085ED8093BC008091BC0084FDFCCF1092EA
:102AF000F302089540917C05262F30E0240F311D0C
:102B000021323105DCF42091F3022430C9F4FC01B8
:102B100080E090E0861758F430917C052191DC012B
:102B2000A45ABA4FA30FB11D2C930196F3CF8091F5
:102B30007C05680F60937C0580E0089581E008952E
:102B400082E00895089508950895E09156058091D2
:102B50005505E81730F4F0E0EB5CFA4F808190E027
:102B600008958FEF9FEF0895909156058091550538
:102B7000981750F4E92FF0E0EB5CFA4F208130E039
:102B80009F5F9093560502C02FEF3FEFC901089554
:102B90008091550590E020915605821B910908957A
:102BA000CF92DF92EF92FF920F931F93CF93DF9319
:102BB0007C01CB018A012091F402222389F0EB01F0
:102BC0006B01C40ED51ECC15DD0569F06991D701E6
:102BD000ED91FC910190F081E02DC7010995F3CFB3
:102BE000642F0E947A15C801DF91CF911F910F9138
:102BF000FF90EF90DF90CF900895CF93DF931F92D7
:102C0000CDB7DEB769832091F4022223D1F0209161
:102C10001703203240F021E030E0FC0133832283AF
:102C200080E090E015C08091F502E82FF0E0EA50D6
:102C3000FD4F998190838F5F8093F50280931703F6
:102C400005C061E0CE0101960E947A1581E090E016
:102C50000F90DF91CF910895089580E090E008955E
:102C60000F931F93CF93DF9381E08093140580919E
:102C70001305882329F0109213058FEF8093080124
:102C8000EAE8F2E0C6E8D2E0AFE0B5E011921992CE
:102C90001D9282E0EE38F807C9F701EF14E0C0E0BA
:102CA000DFEF8EEE8C0F8C3018F462E070E002C023
:102CB00061E070E08C2F0E941104F801D1938F0124
:102CC000CF5FCE3171F71092BB021092BA02109210
:102CD000F0041092EF0410921405DF91CF911F9130
:102CE0000F9108953FB7F8948091A0059091A105A8
:102CF000A091A205B091A30526B5A89B05C02F3FC2
:102D000019F00196A11DB11D3FBFBA2FA92F982F11
:102D10008827820F911DA11DB11DBC01CD0142E08C
:102D2000660F771F881F991F4A95D1F708951F9244
:102D30000F920FB60F9211242F933F938F939F936F
:102D4000AF93BF9380918E0290918F02A0919002D9
:102D5000B091910230919F0523E0230F2D3720F48D
:102D60000196A11DB11D05C026E8230F0296A11DE5
:102D7000B11D20939F0580938E0290938F02A093A4
:102D80009002B09391028091A0059091A105A0912D
:102D9000A205B091A3050196A11DB11D8093A005C8
:102DA0009093A105A093A205B093A305BF91AF9105
:102DB0009F918F913F912F910F900FBE0F901F9079
:102DC00018951F920F920FB60F9211242F933F93D5
:102DD0004F935F936F937F938F939F93AF93BF9323
:102DE000EF93FF938091B900887F803609F49CC0EF
:102DF00068F5883209F45BC090F4803109F454C05E
:102E000038F4882309F4F6C0883009F44DC0F6C0C0
:102E1000883109F44CC0803209F45DC0EFC08034C1
:102E200009F468C048F4803309F455C0883309F0C8
:102E3000E5C08093F102D8C0803509F44FC08835D1
:102E400009F45DC0883409F0D9C0D6C0883909F4C6
:102E5000C7C0A8F4883709F467C038F4883609F485
:102E600063C0803709F460C0C9C0883809F4B8C0AD
:102E7000803909F45FC0803809F0C0C05BC0803B76
:102E800009F486C038F4803A09F466C0883A09F437
:102E90007FC0B4C0803C09F4A7C0883C09F4A4C03A
:102EA000883B09F48AC0AAC08091CE0210C09091DC
:102EB000F0028091EF02981770F5E091F00281E046
:102EC0008E0F8093F002F0E0E153FD4F80818093FC
:102ED000BB0085EC86C08093F1028EC0E091F002C9
:102EE00081E08E0F8093F0028091BB00F0E0E1530F
:102EF000FD4F80839091F0028091EF026EC0E091CF
:102F0000F00281E08E0F8093F0028091BB00F0E030
:102F1000E153FD4F80838091F20281116DC081E009
:102F20008093CD0284EA61C083E08093F302109223
:102F30009E05CFCF80919E05803208F051C0E09170
:102F40009E0581E08E0F80939E058091BB00F0E08E
:102F5000E258FA4F8083BDCF85EC8093BC0010927D
:102F6000F30280919E05803230F4E0919E05F0E0FE
:102F7000E258FA4F108260919E0570E0E091590589
:102F8000F0915A058EE795E0099510929E0536C09E
:102F900084E08093F30210927D0510927C05E0910D
:102FA0005705F0915805099580917C05811105C060
:102FB00081E080937C0510925C05E0917D0581E0C5
:102FC0008E0F80937D05F0E0E45AFA4F8081809364
:102FD000BB0090917D0580917C05981708F479CF0E
:102FE00085E88093BC000AC085EC8093BC001092F9
:102FF000F30204C01092F1020E947015FF91EF914C
:10300000BF91AF919F918F917F916F915F914F9100
:103010003F912F910F900FBE0F901F901895DF9248
:10302000EF92FF920F931F93CF93DF93EC01D62E75
:103030007A01890188818C3008F068C061E08D2DAB
:103040000E945E128881E82FF0E09F01220F331F5B
:10305000E20FF31FE454FC4F9D2D9F732081207CD1
:10306000D22ED92AD08220E232E02E193F0937FF32
:1030700002C02D5F3F4F35952795359527952983BC
:1030800020E639E0201B310B37FF02C02D5F3F4F98
:1030900035952795359527952A836CE00E94392030
:1030A0009CE0899FB001112440E050E09B01240F77
:1030B000351FF901EE0FFF1F2E0F3F1FF901E454DA
:1030C000FC4F908196FD16C04F5F5F4F4C3051050D
:1030D00069F781110FC01092800082E08093810017
:1030E0001092850010928400B19A80916F008260E6
:1030F00080936F00E881F0E0CF01880F991FE80FFF
:10310000F91FE454FC4F8081806480838881DF91C3
:10311000CF911F910F91FF90EF90DF9008951F9234
:103120000F920FB60F9211242F933F934F935F93FB
:103130006F937F938F939F93AF93BF93EF93FF937F
:1031400080915B0587FF05C0109285001092840076
:103150001BC020915B05022E000C330B8091E00315
:1031600090E02817390784F480915B05082E000C45
:10317000990BFC01EE0FFF1F8E0F9F1FFC01E45403
:10318000FC4F808186FD15C080915B058F5F809329
:103190005B0520915B05022E000C330B8091E00350
:1031A00090E028173907C4F480915B058C3064F1F6
:1031B00013C080915B05082E000C990BFC01EE0FEB
:1031C000FF1F8E0F9F1FFC01E454FC4F808160E0C5
:1031D0008F730E942F12D8CF809184009091850028
:1031E000049680349C4918F480E49CE905C08091E1
:1031F00084009091850004969093890080938800C4
:103200008FEF80935B053BC0209184003091850057
:1032100080915B05082E000C990BFC01EE0FFF1F3F
:103220008E0F9F1FFC01E454FC4F81819281820F1D
:10323000931F909389008093880080915B05082EEE
:10324000000C990BFC01EE0FFF1F8E0F9F1FFC015E
:10325000E454FC4F808186FF12C080915B05082EEC
:10326000000C990BFC01EE0FFF1F8E0F9F1FFC013E
:10327000E454FC4F808161E08F730E942F12FF9114
:10328000EF91BF91AF919F918F917F916F915F91DE
:103290004F913F912F910F900FBE0F901F90189557
:1032A00020913305309134058217930740F5FC01D6
:1032B000EE0FFF1F8E0F9F1F20913005A09131054B
:1032C000B0913205A80FB91FA20FB11D6C932091C8
:1032D0002F05A0913105B0913205A80FB91FA20F9B
:1032E000B11D5C9320912E05E0913105F0913205DE
:1032F000E80FF91FE20FF11D408380E0089581E09F
:10330000089510922D051092340510923305EDE1C9
:10331000F5E0A5E1B5E0119211921D9285E0ED3244
:10332000F807C9F70895789484B5826084BD84B5A0
:10333000816084BD85B5826085BD85B5816085BDB0
:1033400080916E00816080936E0010928100809168
:1033500081008260809381008091810081608093F0
:103360008100809180008160809380008091910035
:1033700082608093910080919100816080939100A0
:10338000809190008160809390008091C100846062
:103390008093C1008091C10082608093C1008091C0
:1033A000C10081608093C1008091C30081608093DF
:1033B000C3008091C00082608093C0008091C200F1
:1033C00081608093C20080917A00846080937A004B
:1033D00080917A00826080937A0080917A00816087
:1033E00080937A0080917A00806880937A001092AE
:1033F000CC0210927502109274028091D700816005
:103400008093D70080EA8093D80089B5806189BD18
:1034100089B5826089BD09B400FEFDCF61E070E02E
:1034200080E090E00E94C5128091D8008F7C80617E
:103430008093D8008091E000807F8093E0008091AD
:10344000E1008E7E8093E1008DE08093E200559A4A
:10345000209A88E180938504809186049091870466
:103460000E94E320C0918504D0E0CE0101960E9425
:103470004B209093870480938604FC01EC0FFD1F82
:10348000108222E0DC012C9325E011962C93AE01F2
:10349000425051096FED71E002960E94932182E93A
:1034A00091E0909381028093800286E29DE0909368
:1034B0007F0280937E0281EF9CE090937D02809357
:1034C0007C0284E79CE090937B0280937A0281E106
:1034D00094E090937902809378028FE791E0909343
:1034E0007702809376028CEF96E09093830280932C
:1034F000820280E396E190938502809384028FEFAD
:103500009FEF90932503809324038091E20481111F
:1035100040C061E08DE00E945E12C0E062ED70E0AC
:1035200080E090E00E94C51261E08DE00E942F12C1
:1035300068E270E080E090E00E94C51260E08DE0FB
:103540000E942F12CF5FC23049F76AEF70E080E02F
:1035500090E00E94C512C0E062ED70E080E090E073
:103560000E94C51261E08DE00E942F1268E270E0B7
:1035700080E090E00E94C51260E08DE00E942F1272
:10358000CF5FC53049F76DE770E080E090E00E94C2
:10359000C51288E193E09093840480938304909310
:1035A00046048093450485E494E00E94851385E0F9
:1035B00094E00E948406C09107016AE070E080E018
:1035C00090E00E94C512CC23B1F30E9430160E94F5
:1035D0008119D5E000E010E0BB24B39492E0E92E1D
:1035E000F12CCC24C394D12C80918A02882309F435
:1035F00048C0A0908602A0FE70C380E00E94061220
:10360000892B09F46AC3C1E0A1FE06C081E00E94D3
:103610000612892B09F063C3A2FE06C082E00E9455
:103620000612892B09F05DC3A3FE06C083E00E9449
:103630000612892B09F057C3A4FE06C084E00E943D
:103640000612892B09F051C3A5FE06C085E00E9431
:103650000612892B09F04BC3A6FE06C086E00E9425
:103660000612892B09F045C3A7FE06C087E00E9419
:103670000612892B09F03FC340E06C2F80E00E94C6
:10368000420680918B02882309F448C0A0908702EB
:10369000A0FE33C388E00E940612892B09F42DC3D3
:1036A000C1E0A1FE06C089E00E940612892B09F044
:1036B00026C3A2FE06C08AE00E940612892B09F0EA
:1036C00020C3A3FE06C08BE00E940612892B09F0DE
:1036D0001AC3A4FE06C08CE00E940612892B09F0D2
:1036E00014C3A5FE06C08DE00E940612892B09F0C6
:1036F0000EC3A6FE06C08EE00E940612892B09F0BA
:1037000008C3A7FE06C08FE00E940612892B09F0AD
:1037100002C340E06C2F81E00E94420680918C023F
:10372000882309F448C0A0908802A0FEF6C280E178
:103730000E940612892B09F4F0C2C1E0A1FE06C066
:1037400081E10E940612892B09F0E9C2A2FE06C09F
:1037500082E10E940612892B09F0E3C2A3FE06C093
:1037600083E10E940612892B09F0DDC2A4FE06C087
:1037700084E10E940612892B09F0D7C2A5FE06C07B
:1037800085E10E940612892B09F0D1C2A6FE06C06F
:1037900086E10E940612892B09F0CBC2A7FE06C063
:1037A00087E10E940612892B09F0C5C240E06C2F08
:1037B00082E00E94420680918D028823C1F1A09090
:1037C0008902A0FEBAC288E10E940612892B09F480
:1037D000B4C2C1E0A1FE06C089E10E940612892B95
:1037E00009F0ADC2A2FE06C08AE10E940612892B32
:1037F00009F0A7C2A3FE06C08BE10E940612892B26
:1038000009F0A1C2A4FE06C08CE10E940612892B19
:1038100009F09BC2A5FE06C08DE10E940612892B0D
:1038200009F095C240E06C2F83E00E94420680912F
:10383000830490918404DC01ED91FC910084F18576
:10384000E02D0995892B09F4CEC1809183049091D4
:103850008404DC01ED91FC910284F385E02D09954F
:103860009C018F3FBFEF9B0711F3982F809150046D
:10387000882309F492C0973F09F07EC0109250044B
:10388000A0914804B09149046C916137C1F1693746
:1038900009F05CC0E0917D04F0917E04309739F22C
:1038A00080915104909152048330910538F420E0C6
:1038B00030E040E050E060E070E01BC0BD016D5FB3
:1038C0007F4F03970E94DE13BC016D5F7F4F80E046
:1038D0000E94AF13E0914804F09149049F012D5FCD
:1038E0003F4F428150E0618170E0E0917D04F091B2
:1038F0007E0480915F0490916004099598CF809137
:10390000790490917A04892B09F491CFBD016F5FFE
:103910007F4F809151049091520401970E94DE13D1
:10392000BC016F5F7F4F80E00E94AF13609148043D
:10393000709149046F5F7F4FE0917904F0917A04B0
:103940008091650490916604099571CFE0917B04A4
:10395000F0917C04309709F46ACF9D012F5F3F4FAF
:103960004091510450915204415051098091670493
:103970009091680409955BCF609151047091520455
:10398000822F0E94AF1380915104909152040196AE
:1039900090935204809351044ACF60914E047091E9
:1039A0004F046115710509F4AFC027FDADC061502A
:1039B000710970934F0460934E04822F0E94AF13DD
:1039C00080914E0490914F04892B09F030CF809163
:1039D0004C04882309F42BCF803D09F47FC030F4D8
:1039E000803939F1803C09F466C08BC0843FE1F135
:1039F000853F09F44DC0803E09F083C0E0916B041F
:103A0000F0916C04309709F47CC0A0914804B09107
:103A100049048C9111964C9150E090E8899F400D9B
:103A2000511D112460914D048091530490915404D0
:103A300067C0E0916D04F0916E04309709F461C0A5
:103A4000A0914804B09149048C9111964C9150E09A
:103A5000A0E88A9F400D511D112460914D04809172
:103A60005504909156044CC0E0917304F091740495
:103A7000309709F446C0A0914804B09149044C9194
:103A800050E011966C9180915B0490915C0438C079
:103A9000E0917504F0917604309799F1A091480473
:103AA000B09149044C9150E011966C9180915D0465
:103AB00090915E0425C0E0916F04F09170043097FE
:103AC00001F1A0914804B09149044C9150E06091FB
:103AD0004D04809157049091580412C0E0917104F4
:103AE000F0917204309769F0A0914804B0914904B4
:103AF0004C9150E060914D048091590490915A048A
:103B0000099510924C0493CE903F30F4822F8F7021
:103B100080934D04922F907F903F79F158F4903C20
:103B200029F118F49039E9F082CE903DF9F0903EF9
:103B3000C1F07DCE993F09F449C028F48CE0890F8B
:103B4000823078F074CE9F3F09F071CE10924F040E
:103B500010924E0410924C0410924D0480E090E0BC
:103B600013C0F0924F04E0924E0404C0D0924F0470
:103B7000C0924E0490934C045ACEB09250041092CE
:103B800052041092510453CE20914A0430914B04B8
:103B90008217930748F4E0914804F0914904E80F34
:103BA000F91F10820196F0CF109250041092520427
:103BB00010925104E0918104F0918204309709F44D
:103BC00036CE8091690490916A040BC0E0917F0425
:103BD000F0918004309709F42ACE8091610490918D
:103BE0006204099524CE8FB7F89440918E025091CB
:103BF0008F0260919002709191028FBF4090BC0241
:103C00005090BD026090BE027090BF0220910901E9
:103C100030910A01C901A0E0B0E0441955096609D4
:103C2000770984179507A607B70708F04FC0840DDA
:103C3000951DA61DB71D8093BC029093BD02A09355
:103C4000BE02B093BF0288E8882E84E0982ECEEEA4
:103C5000CC30B8F4F4018081823099F48091BA02BA
:103C60009091BB020C2E02C0959587950A94E2F7BD
:103C700080FF07C08C2F0E949A12BC018C2F0E94DB
:103C8000F713CF5FFFEF8F1A9F0ACC3009F78091AF
:103C9000080187FD1BC0C0E02C2F30E08091080197
:103CA000082E000C990B8217930784F0D29FF00125
:103CB000D39FF00D1124EE56FD4F61817281248156
:103CC000438180810E94EE02CF5FE6CF011511058E
:103CD00009F48ACC0E94000087CCC0E095CCC26079
:103CE0009BCCC460A1CCC860A7CCC061ADCCC06285
:103CF000B3CCC064B9CCC068BFCCC0E0D2CCC26089
:103D0000D8CCC460DECCC860E4CCC061EACCC06270
:103D1000F0CCC064F6CCC068FCCCC0E00FCDC26073
:103D200015CDC4601BCDC86021CDC06127CDC06258
:103D30002DCDC06433CDC06839CDC0E04BCDC2605D
:103D400051CDC46057CDC8605DCDC06163CDC06248
:103D500069CDDF92EF92FF920F931F93CF93DF9382
:103D6000D82EF92EE42E062F10E0C8010196880FF8
:103D70000E94D80D83E00E94D80DCD2DDF2D0C0FB1
:103D80001D1FC017D10789F0E7FE03C0FE01849113
:103D900001C088810E94D80DF82E80E00E94D80DC5
:103DA0008F2121968111EDCF01C081E0DF91CF916C
:103DB0001F910F91FF90EF90DF90089510921B03D9
:103DC00010921A0388EE93E0A0E0B0E080931C0309
:103DD00090931D03A0931E03B0931F0320E231E0D4
:103DE00030931903209318032FEF3FEF30932503EF
:103DF0002093240310926B0310926A0380936C0348
:103E000090936D03A0936E03B0936F0382E391E0F0
:103E10009093690380936803E4E7F3E011821082D2
:103E200013821282399623E0EC3BF207B9F78091B6
:103E3000E003A1EEB3E09FEF48EB5BE08C3078F459
:103E40008C93282F30E0F901EE0FFF1F2E0F3F1F3C
:103E5000F901E454FC4F528341838F5F01C09C936E
:103E6000139624E0A530B20749F78093E00385E07C
:103E700094E0109246041092450490934904809374
:103E8000480420E430E030934B0420934A0410921D
:103E90004C0410924D0410924F0410924E04109254
:103EA0005004109252041092510410925404109233
:103EB0005304109256041092550410925804109214
:103EC000570410925A041092590410925C041092F4
:103ED0005B0410925E0410925D04109264041092D0
:103EE00063041092660410926504109268041092A4
:103EF000670410926A041092690410927804109278
:103F0000770410924704109285041092870410924F
:103F100086041092E20425E731E030936C0420938C
:103F20006B042BE631E030936E0420936D042DE496
:103F300031E03093700420936F0423E431E0309338
:103F400072042093710421E631E0309374042093CD
:103F5000730427E531E0309376042093750422E45E
:103F600031E030937A042093790427E331E03093F1
:103F70007C0420937B0427EF36E030937E0420936B
:103F80007D049093600480935F0427EE32E03093C9
:103F9000800420937F0490936204809361048FE2F5
:103FA00091E090938204809381040895052E97FBFD
:103FB0001EF400940E94ED1F57FD07D00E940820B8
:103FC00007FC03D04EF40C94ED1F509540953095AE
:103FD00021953F4F4F4F5F4F089590958095709575
:103FE00061957F4F8F4F9F4F08950E942A20A59F74
:103FF000900DB49F900DA49F800D911D11240895E4
:10400000B7FF0C94F51F0E94F51F821B930B0895B8
:10401000A1E21A2EAA1BBB1BFD010DC0AA1FBB1FCC
:10402000EE1FFF1FA217B307E407F50720F0A21B3E
:10403000B30BE40BF50B661F771F881F991F1A94AB
:1040400069F760957095809590959B01AC01BD01D5
:10405000CF010895A29FB001B39FC001A39F700D2F
:10406000811D1124911DB29F700D811D1124911D80
:104070000895991B79E004C0991F961708F0961BC4
:10408000881F7A95C9F780950895EE0FFF1F059058
:10409000F491E02D09940F931F93CF93DF93823017
:1040A000910510F482E090E0E091A605F091A7055B
:1040B00020E030E0A0E0B0E0309719F1408151817C
:1040C0000281138148175907C8F08417950769F4CE
:1040D000109731F012960C93129713961C9327C0E9
:1040E0000093A6051093A70522C02115310519F0EC
:1040F0004217530718F49A01BD01EF01DF01F801DF
:10410000DBCF21153105F9F0281B390B243031059F
:1041100080F48A819B816115710521F0FB019383F5
:10412000828304C09093A7058093A605FE01329672
:1041300044C0FE01E20FF31F819391932250310995
:10414000398328833AC02091A4053091A505232BFB
:1041500041F420911101309112013093A505209373
:10416000A40520910F01309110012115310541F472
:104170002DB73EB74091130150911401241B350B0C
:10418000E091A405F091A505E217F307A0F42E1B1A
:104190003F0B2817390778F0AC014E5F5F4F2417AB
:1041A000350748F04E0F5F1F5093A5054093A405B7
:1041B0008193919302C0E0E0F0E0CF01DF91CF91D5
:1041C0001F910F910895CF93DF93009709F481C059
:1041D000FC01329713821282A091A605B091A70527
:1041E000109781F420813181820F931F2091A405C3
:1041F0003091A5052817390751F5F093A505E093EF
:10420000A40567C0ED0120E030E0CE17DF0740F4E1
:104210004A815B819E0141155105F1F0EA01F5CF1C
:10422000D383C28340815181840F951FC817D9075A
:1042300059F488819981840F951F02969183808318
:104240008A819B81938382832115310529F4F09320
:10425000A705E093A6053DC0E901FB83EA834991E8
:104260005991C40FD51FEC17FD0761F4808191812E
:10427000840F951F0296E901998388838281938137
:104280009B838A83E0E0F0E012968D919C911397D6
:10429000009719F0FD01DC01F7CF8D919C911197EA
:1042A0009D012E5F3F4F820F931F2091A4053091F7
:1042B000A5052817390769F4309729F41092A70546
:1042C0001092A60502C013821282B093A505A09396
:1042D000A405DF91CF91089581E090E0F8940C94CB
:1042E000A221FB01DC0102C001900D92415050401F
:1042F000D8F708956817790768F4FB01DC01E40F2B
:10430000F51FA40FB51F02C002900E9241505040FD
:10431000D8F708950C947121DC0101C06D934150D0
:104320005040E0F70895FB01DC014150504048F057
:1043300001900D920020C9F701C01D9241505040DC
:08434000E0F70895F894FFCFA7
:1043480000E1000000000000FF1300FFFFFFFF0076
:1043580000A805800000C180810000000000000066
:10436800640EFF12100F7A0E850E380F140F00001E
:104378000000FD15D0152D16A415C815B415A515E2
:104388004932433A20546F6F206D616E792062790B
:1043980074657320726563656976656400493243A4
:1043A8003A20546F6F2066657720627974657320B0
:1043B8007265636569766564004D6178207365721E
:1043C800766F7320617474616368656400556E6B01
:1043D8006E6F776E2070696E206D6F6465002F5563
:1043E800736572732F616A6669736865722F646595
:1043F800762F6E6F64652D706978656C2F666972AB
:104408006D776172652F6275696C642F6E6F646574
:104418005F706978656C5F6669726D6174612F6E33
:104428006F64655F706978656C5F6669726D6174E9
:10443800612E696E6F0031302D6269742061646489
:1044480072657373696E67206E6F74207375707010
:104458006F7274656400746F6F206D616E7920717E
:084468007565726965730000BF
:00000001FF
