:100000000C945D000C9485000C9485000C94850084
:100010000C9485000C9485000C9485000C9485004C
:100020000C9485000C9485000C9485000C9485003C
:100030000C9485000C9485000C9485000C9485002C
:100040000C9440050C9485000C9485000C9485005C
:100050000C9485000C9485000C9485000C9485000C
:100060000C948A050C9485000000000024002700F1
:100070002A0000000000250028002B0004040404CE
:100080000404040402020202020203030303030342
:10009000010204081020408001020408102001021F
:1000A00004081020000000080002010000030407FB
:1000B0000000000000000000B80611241FBECFEFB2
:1000C000D8E0DEBFCDBF11E0A0E0B1E0E4E8F1E1AF
:1000D00002C005900D92A831B107D9F722E0A8E13E
:1000E000B1E001C01D92A033B207E1F710E0CDE509
:1000F000D0E004C02197FE010E947207CC35D107E1
:10010000C9F70E94DA060C94C0080C94000090E035
:10011000FC01EC55FF4F2491FC01E057FF4F349157
:10012000FC01E458FF4FE491EE23B1F1222339F1B1
:10013000233091F038F42130A9F0223001F584B554
:100140008F7D12C0273091F02830A1F02430B9F40F
:10015000809180008F7D03C0809180008F77809395
:1001600080000DC084B58F7784BD09C08091B00038
:100170008F7703C08091B0008F7D8093B000F0E056
:10018000EE0FFF1FEE58FF4FA591B4918FB7F89473
:10019000EC91E32BEC938FBF08950895CF93DF93F9
:1001A000AC01E091D601F091D7013097F1F0909138
:1001B000D5018091D4019817C0F090E0292F30E04C
:1001C0002617370754F4D901A55CBE4FEA01C20FC8
:1001D000D31F28812C939F5FF1CF1092D50160939C
:1001E000D401CB01DF91CF910994DF91CF91089594
:1001F000CF92DF92EF92FF920F931F93CF93DF93F3
:100200006C017A018B01C0E0D0E0CE15DF0581F0F2
:10021000D8016D918D01D601ED91FC910190F08195
:10022000E02DC6010995892B11F02196EECF7E01B4
:10023000C701DF91CF911F910F91FF90EF90DF9059
:10024000CF9008953FB7F8948091C7019091C8016D
:10025000A091C901B091CA0126B5A89B05C02F3F46
:1002600019F00196A11DB11D3FBFBA2FA92F982FDC
:100270008827820F911DA11DB11DBC01CD0142E057
:10028000660F771F881F991F4A95D1F7089585ED4E
:100290008093BC008091BC0084FDFCCF1092D10102
:1002A000089540917B01262F30E0240F311D21322B
:1002B0003105DCF42091D1012430C9F4FC0180E047
:1002C00090E0861758F430917B012191DC01A55A0A
:1002D000BE4FA30FB11D2C930196F3CF80917B01EC
:1002E000680F60937B0180E0089581E0089582E0CB
:1002F00008950895E091D5018091D401E81730F474
:10030000F0E0E55CFE4F808190E008958FEF9FEF75
:1003100008959091D5018091D401981750F4E92F58
:10032000F0E0E55CFE4F208130E09F5F9093D501C7
:1003300002C02FEF3FEFC90108958091D40190E0F2
:100340002091D501821B91090895CF93DF93CB01B2
:10035000EA01642F0E945101CE01DF91CF910895EF
:10036000CF93DF931F92CDB7DEB7698361E0CE01F3
:1003700001960E94510181E090E00F90DF91CF91B2
:100380000895089580E090E008952091390130911A
:100390003A0182179307F8F49C01220F331F820F52
:1003A000931FE0913701F0913801209136018E0FB3
:1003B0009F1FFC01E20FF11D608320913501FC01BC
:1003C000E20FF11D508320913401FC01E20FF11D79
:1003D000408380E0089581E00895DC0170E0FB0136
:1003E000E057FF4FE4911896EC93189764587F4FAD
:1003F000FB018491E82FF0E0EE0FFF1FEE58FF4F56
:100400008591949115969C938E931497FB0164911A
:10041000E62FF0E0EE0FFF1FE859FF4F8591949112
:1004200017969C938E93169708950F931F93CF93CF
:10043000809333011092320110923A0110923901E7
:10044000E2E2F1E0AAE1B1E0119211921D9291E095
:10045000E233F907C9F7882361F004EE11E0C0E048
:100460006C2FC8010E94ED01CF5F075F1F4FC8309E
:10047000B9F7CF911F910F9108950E9499086F923B
:100480007F928F929F92AF92BF92CF92DF92EF9224
:10049000FF920F931F93CF93DF93CDB7DEB7609793
:1004A0000FB6F894DEBF0FBECDBF5C0110E0E12EA9
:1004B000F12CEA14FB0494F488ED91E0103150F42F
:1004C0000E948901E1E0F0E0EC0FFD1FEE0DFF1D41
:1004D000808302C00E9489011F5FE9CF9981892F23
:1004E0008F70833009F4E2C030F4813009F433C1F5
:1004F000823041F0B0C2843009F479C0853009F40B
:10050000DEC1A9C2809119018111A5C28091180193
:100510008111A1C281E08093190110E009E080916E
:100520003201181708F060C0812F90E0AC01465EE0
:100530005E4FDA012C91222309F452C0C09037019A
:10054000D0903801089FD001099FB00D1124AC5103
:10055000BE4F16962D913C911797F9018081189600
:100560009C911897982B908314966D917C91159778
:100570001896FC9018978D919C9111979C01220FD1
:10058000331F280F391F12968D919C911397DC0110
:10059000AA0FBB1F8A0F9B1FF601E80FF91FDB0193
:1005A0008C919F2D90959823C82ECF28FFB6F89454
:1005B0002E0F3F1FE217F30789F0E190DB0188E07F
:1005C000CC9200C0E7FE9C93EE0C00C000C000C0BF
:1005D00008F49C9300C08A9599F7ECCFFFBE7894FD
:1005E000DA011C921F5F9BCF1092190134C28091D7
:1005F0001801811130C28C8190E0A0E0B0E0AC0124
:10060000BD01EEE0440F551F661F771FEA95D1F735
:100610009D81892F90E0A0E0B0E0F5E1880F991F5F
:10062000AA1FBB1FFA95D1F7840F951FA61FB71FEE
:100630002A81820F911DA11DB11DCB80D12CE12CEF
:10064000F12C17E0CC0CDD1CEE1CFF1C1A95D1F729
:10065000C80ED91EEA1EFB1EC114D104E104F10428
:1006600019F000E010E012C04091390150913A01B8
:10067000CA01880F991F480F591F60E070E08091F0
:100680003701909138010E94B908B1C180913901B8
:1006900090913A010817190708F0A9C1B701A601FE
:1006A000C8010E94C5010F5F1F4FF0CF8091180154
:1006B0008111D1C18B810A8110E0B0E88B9F000DC0
:1006C000111D11248E8190E0A0E0B0E0AC01BD01CD
:1006D000EEE0440F551F661F771FEA95D1F79F8103
:1006E000892F90E0A0E0B0E0F5E1880F991FAA1FE4
:1006F000BB1FFA95D1F7840F951FA61FB71F2C813A
:10070000820F911DA11DB11D4D8150E060E070E090
:1007100027E0440F551F661F771F2A95D1F7480F12
:10072000591F6A1F7B1FC8010E94C50140913201F9
:10073000A2E2B1E080E090E0841708F08CC1FC01F7
:100740002D913D91019602171307B0F7E65EFE4F1B
:1007500081E0808380C1913009F07DC1E2E0EA153B
:1007600008F079C1809133010E9415028BEAA89E9E
:10077000F12C1124F69432E2832E31E0932E44EED4
:10078000A42E41E0B42ECE0101966C01E12C772419
:10079000739452E0652E80913301811107C0D60118
:1007A00011966C916F71C5010E94ED01F601818176
:1007B00090E025E0959587952A95E1F781309105A0
:1007C00051F08230910571F0892B91F4109235012E
:1007D0007092360104C01092360170923501609219
:1007E000340106C0109234017092360160923501D6
:1007F000D60113968C91139712960C9110E0B0E8E5
:100800008B9F000D111D1124F50111830083EE2033
:1008100029F0F40132978081918102C080E090E05C
:100820009801280F391FD4012D933D934D01F501F7
:10083000938382838091390190913A01080F191FA7
:1008400010933A0100933901809132018F5F8093B8
:100850003201E394F9E0AF0EB11C23E0C20ED11CCB
:10086000FE1099CF8091370190913801009731F0B7
:100870000E94100810923A011092390101151105D9
:1008800009F4E9C07801EE0CFF1CE00EF11EC7016F
:100890000E9478079093380180933701009751F0B8
:1008A000A70160E070E00E94B90810933A0100933C
:1008B0003901D1C010923A0110923901CCC08A811D
:1008C000982F9F7109F493C0A82FA072AA2E092F08
:1008D000000F090F21E02093180110E0E92EF12C00
:1008E000B82FB074BB2E86FF28C0C8010E947807BD
:1008F0006C01009729F0A80160E070E00E94B9083F
:10090000AA2039F06091390170913A016E197F097E
:1009100002C060E070E0CB01880F991F680F791F5B
:100920008091370190913801680F791FA801C601A5
:100930000E949E08A11078C019C0AA23B9F0809126
:100940003701909138014091390150913A014E1987
:100950005F099A01220F331F420F531FBC01800F02
:10096000911F0E94A70880E090E02FC0809039017D
:1009700090903A018E189F0880913701909138012C
:10098000A401440F551F480D591DBC01600F711F74
:100990000E94A708BB2099F0C401880F991F880EF8
:1009A000991E8091370190913801A801B601880DF8
:1009B000991D0E949E08C6010E94100816C08091D1
:1009C000390190913A018E199F099C01220F331F22
:1009D000820F931F2091370130913801A80160E008
:1009E00070E0820F931F0E94B90810921801409185
:1009F000320150E061E070E08AE191E060960FB66C
:100A0000F894DEBF0FBECDBFDF91CF911F910F9144
:100A1000FF90EF90DF90CF90BF90AF909F908F901E
:100A20007F906F900C94B9088091370190913801B4
:100A30004091390150913A014E195F099A01220FF4
:100A4000331F420F531FBC01800F911F0E94A70844
:100A5000812C912CA1CF60960FB6F894DEBF0FBE0B
:100A6000CDBFDF91CF911F910F91FF90EF90DF905D
:100A7000CF90BF90AF909F908F907F906F90089590
:100A80001F920F920FB60F9211242F933F938F93C3
:100A90009F93AF93BF938091C3019091C401A091A4
:100AA000C501B091C6013091C20123E0230F2D375B
:100AB00020F40196A11DB11D05C026E8230F029662
:100AC000A11DB11D2093C2018093C3019093C40165
:100AD000A093C501B093C6018091C7019091C80150
:100AE000A091C901B091CA010196A11DB11D8093C9
:100AF000C7019093C801A093C901B093CA01BF91E7
:100B0000AF919F918F913F912F910F900FBE0F90BA
:100B10001F9018951F920F920FB60F9211242F93CA
:100B20003F934F935F936F937F938F939F93AF9375
:100B3000BF93EF93FF938091B900887F803609F4CB
:100B40009CC068F5883209F45BC090F4803109F4E8
:100B500054C038F4882309F4F6C0883009F44DC035
:100B6000F6C0883109F44CC0803209F45DC0EFC092
:100B7000803409F468C048F4803309F455C08833E0
:100B800009F0E5C080939E01D8C0803509F44FC0BC
:100B9000883509F45DC0883409F0D9C0D6C08839D9
:100BA00009F4C7C0A8F4883709F467C038F4883658
:100BB00009F463C0803709F460C0C9C0883809F4FB
:100BC000B8C0803909F45FC0803809F0C0C05BC08C
:100BD000803B09F486C038F4803A09F466C0883A4C
:100BE00009F47FC0B4C0803C09F4A7C0883C09F474
:100BF000A4C0883B09F48AC0AAC08091C10110C07A
:100C00009091C0018091BF01981770F5E091C001EB
:100C100081E08E0F8093C001F0E0E156FE4F8081AD
:100C20008093BB0085EC86C080939E018EC0E091CE
:100C3000C00181E08E0F8093C0018091BB00F0E085
:100C4000E156FE4F80839091C0018091BF016EC03C
:100C5000E091C00181E08E0F8093C0018091BB00C4
:100C6000F0E0E156FE4F80838091D00181116DC08C
:100C700081E08093CF0184EA61C083E08093D10159
:100C800010929D01CFCF80919D01803208F051C01C
:100C9000E0919D0181E08E0F80939D018091BB00CA
:100CA000F0E0E358FE4F8083BDCF85EC8093BC001D
:100CB0001092D10180919D01803230F4E0919D012C
:100CC000F0E0E358FE4F108260919D0170E0E091EA
:100CD000CB01F091CC018DE791E0099510929D0137
:100CE00036C084E08093D10110927C0110927B0188
:100CF000E091CD01F091CE01099580917B018111A8
:100D000005C081E080937B0110925B01E0917C0142
:100D100081E08E0F80937C01F0E0E55AFE4F8081E8
:100D20008093BB0090917C0180917B01981708F41F
:100D300079CF85E88093BC000AC085EC8093BC0025
:100D40001092D10104C010929E010E944701FF91B0
:100D5000EF91BF91AF919F918F917F916F915F9133
:100D60004F913F912F910F900FBE0F901F901895AC
:100D70001092DB011092DA0188EE93E0A0E0B0E07F
:100D80008093DC019093DD01A093DE01B093DF013D
:100D90008AE091E09093D9018093D801E4EEF1E0EC
:100DA0001182108213821282399682E0EC32F807A7
:100DB000B9F70895789484B5826084BD84B5816064
:100DC00084BD85B5826085BD85B5816085BD809116
:100DD0006E00816080936E0010928100809181008E
:100DE0008260809381008091810081608093810086
:100DF000809180008160809380008091B100846048
:100E00008093B1008091B00081608093B0008091A8
:100E10007A00846080937A0080917A008260809367
:100E20007A0080917A00816080937A0080917A00C4
:100E3000806880937A001092C1001092D5011092C0
:100E4000D4011092D3011092D2011092D10181E00D
:100E50008093D0011092CF0182E10E94870083E14C
:100E60000E9487008091B9008E7F8093B9008091A5
:100E7000B9008D7F8093B90088E48093B80085E441
:100E80008093BC008DEC90E09093CE018093CD01D7
:100E90008EEC90E09093CC018093CB0184E880931A
:100EA000BA008FE392E09093D7018093D60181E05E
:100EB0000E941502C0E0D0E00E9422016B017C017B
:100EC0000E942201DC01CB018C199D09AE09BF09EA
:100ED000883E9340A105B10598F3209769F30E94DD
:100EE0000000EACFEE0FFF1F0590F491E02D09946A
:100EF0000F931F93CF93DF938230910510F482E01C
:100F000090E0E0912E02F0912F0220E030E0A0E08E
:100F1000B0E0309719F14081518102811381481767
:100F20005907C8F08417950769F4109731F01296A5
:100F30000C93129713961C9327C000932E021093C4
:100F40002F0222C02115310519F04217530718F45A
:100F50009A01BD01EF01DF01F801DBCF2115310559
:100F6000F9F0281B390B2430310580F48A819B81EC
:100F70006115710521F0FB019383828304C0909376
:100F80002F0280932E02FE01329644C0FE01E20F32
:100F9000F31F8193919322503109398328833AC0FA
:100FA00020912C0230912D02232B41F4209102013B
:100FB0003091030130932D0220932C0220910001E7
:100FC000309101012115310541F42DB73EB7409113
:100FD000040150910501241B350BE0912C02F09186
:100FE0002D02E217F307A0F42E1B3F0B2817390739
:100FF00078F0AC014E5F5F4F2417350748F04E0F75
:101000005F1F50932D0240932C028193919302C055
:10101000E0E0F0E0CF01DF91CF911F910F910895B3
:10102000CF93DF93009709F481C0FC0132971382BC
:101030001282A0912E02B0912F02109781F420818C
:101040003181820F931F20912C0230912D0228179D
:10105000390751F5F0932D02E0932C0267C0ED01A2
:1010600020E030E0CE17DF0740F44A815B819E012B
:1010700041155105F1F0EA01F5CFD383C2834081D8
:101080005181840F951FC817D90759F48881998118
:10109000840F951F0296918380838A819B8193831D
:1010A00082832115310529F4F0932F02E0932E025B
:1010B0003DC0E901FB83EA8349915991C40FD51FD3
:1010C000EC17FD0761F480819181840F951F0296D2
:1010D000E90199838883828193819B838A83E0E0FD
:1010E000F0E012968D919C911397009719F0FD01F5
:1010F000DC01F7CF8D919C9111979D012E5F3F4FA1
:10110000820F931F20912C0230912D02281739074E
:1011100069F4309729F410922F0210922E0202C027
:1011200013821282B0932D02A0932C02DF91CF91F3
:10113000089581E090E0F8940C94C008FB01DC0174
:1011400002C001900D9241505040D8F708956817A1
:10115000790768F4FB01DC01E40FF51FA40FB51F4C
:1011600002C002900E9241505040D8F708950C945E
:101170009E08DC0101C06D9341505040E0F7089596
:04118000F894FFCF11
:1011840000003002800000000000B001A501C2018F
:0811940079019D0189017A0136
:00000001FF
